{
  "address": "0x3dA98bCbDF9A733dFa62F38cBA9674545eE5b94b",
  "abi": [
    {
      "inputs": [
        {
          "internalType": "address",
          "name": "timelock_",
          "type": "address"
        },
        {
          "internalType": "address",
          "name": "chn_",
          "type": "address"
        },
        {
          "internalType": "address",
          "name": "guardian_",
          "type": "address"
        },
        {
          "internalType": "uint256[]",
          "name": "configs",
          "type": "uint256[]"
        }
      ],
      "payable": false,
      "stateMutability": "nonpayable",
      "type": "constructor"
    },
    {
      "anonymous": false,
      "inputs": [
        {
          "indexed": false,
          "internalType": "uint256",
          "name": "id",
          "type": "uint256"
        }
      ],
      "name": "ProposalCanceled",
      "type": "event"
    },
    {
      "anonymous": false,
      "inputs": [
        {
          "indexed": false,
          "internalType": "uint256",
          "name": "id",
          "type": "uint256"
        },
        {
          "indexed": false,
          "internalType": "address",
          "name": "proposer",
          "type": "address"
        },
        {
          "indexed": false,
          "internalType": "address[]",
          "name": "targets",
          "type": "address[]"
        },
        {
          "indexed": false,
          "internalType": "uint256[]",
          "name": "values",
          "type": "uint256[]"
        },
        {
          "indexed": false,
          "internalType": "string[]",
          "name": "signatures",
          "type": "string[]"
        },
        {
          "indexed": false,
          "internalType": "bytes[]",
          "name": "calldatas",
          "type": "bytes[]"
        },
        {
          "indexed": false,
          "internalType": "uint256",
          "name": "startBlock",
          "type": "uint256"
        },
        {
          "indexed": false,
          "internalType": "uint256",
          "name": "endBlock",
          "type": "uint256"
        },
        {
          "indexed": false,
          "internalType": "string",
          "name": "description",
          "type": "string"
        }
      ],
      "name": "ProposalCreated",
      "type": "event"
    },
    {
      "anonymous": false,
      "inputs": [
        {
          "indexed": false,
          "internalType": "uint256",
          "name": "id",
          "type": "uint256"
        }
      ],
      "name": "ProposalExecuted",
      "type": "event"
    },
    {
      "anonymous": false,
      "inputs": [
        {
          "indexed": false,
          "internalType": "uint256",
          "name": "id",
          "type": "uint256"
        },
        {
          "indexed": false,
          "internalType": "uint256",
          "name": "eta",
          "type": "uint256"
        }
      ],
      "name": "ProposalQueued",
      "type": "event"
    },
    {
      "anonymous": false,
      "inputs": [
        {
          "indexed": false,
          "internalType": "address",
          "name": "voter",
          "type": "address"
        },
        {
          "indexed": false,
          "internalType": "uint256",
          "name": "proposalId",
          "type": "uint256"
        },
        {
          "indexed": false,
          "internalType": "bool",
          "name": "support",
          "type": "bool"
        },
        {
          "indexed": false,
          "internalType": "uint256",
          "name": "votes",
          "type": "uint256"
        }
      ],
      "name": "VoteCast",
      "type": "event"
    },
    {
      "constant": true,
      "inputs": [],
      "name": "BALLOT_TYPEHASH",
      "outputs": [
        {
          "internalType": "bytes32",
          "name": "",
          "type": "bytes32"
        }
      ],
      "payable": false,
      "stateMutability": "view",
      "type": "function"
    },
    {
      "constant": true,
      "inputs": [],
      "name": "DOMAIN_TYPEHASH",
      "outputs": [
        {
          "internalType": "bytes32",
          "name": "",
          "type": "bytes32"
        }
      ],
      "payable": false,
      "stateMutability": "view",
      "type": "function"
    },
    {
      "constant": false,
      "inputs": [],
      "name": "__abdicate",
      "outputs": [],
      "payable": false,
      "stateMutability": "nonpayable",
      "type": "function"
    },
    {
      "constant": false,
      "inputs": [],
      "name": "__acceptAdmin",
      "outputs": [],
      "payable": false,
      "stateMutability": "nonpayable",
      "type": "function"
    },
    {
      "constant": false,
      "inputs": [
        {
          "internalType": "address",
          "name": "newPendingAdmin",
          "type": "address"
        },
        {
          "internalType": "uint256",
          "name": "eta",
          "type": "uint256"
        }
      ],
      "name": "__executeSetTimelockPendingAdmin",
      "outputs": [],
      "payable": false,
      "stateMutability": "nonpayable",
      "type": "function"
    },
    {
      "constant": false,
      "inputs": [
        {
          "internalType": "address",
          "name": "newPendingAdmin",
          "type": "address"
        },
        {
          "internalType": "uint256",
          "name": "eta",
          "type": "uint256"
        }
      ],
      "name": "__queueSetTimelockPendingAdmin",
      "outputs": [],
      "payable": false,
      "stateMutability": "nonpayable",
      "type": "function"
    },
    {
      "constant": false,
      "inputs": [
        {
          "internalType": "uint256",
          "name": "proposalId",
          "type": "uint256"
        }
      ],
      "name": "cancel",
      "outputs": [],
      "payable": false,
      "stateMutability": "nonpayable",
      "type": "function"
    },
    {
      "constant": false,
      "inputs": [
        {
          "internalType": "uint256",
          "name": "proposalId",
          "type": "uint256"
        },
        {
          "internalType": "bool",
          "name": "support",
          "type": "bool"
        }
      ],
      "name": "castVote",
      "outputs": [],
      "payable": false,
      "stateMutability": "nonpayable",
      "type": "function"
    },
    {
      "constant": false,
      "inputs": [
        {
          "internalType": "uint256",
          "name": "proposalId",
          "type": "uint256"
        },
        {
          "internalType": "bool",
          "name": "support",
          "type": "bool"
        },
        {
          "internalType": "uint8",
          "name": "v",
          "type": "uint8"
        },
        {
          "internalType": "bytes32",
          "name": "r",
          "type": "bytes32"
        },
        {
          "internalType": "bytes32",
          "name": "s",
          "type": "bytes32"
        }
      ],
      "name": "castVoteBySig",
      "outputs": [],
      "payable": false,
      "stateMutability": "nonpayable",
      "type": "function"
    },
    {
      "constant": false,
      "inputs": [
        {
          "internalType": "uint256",
          "name": "value",
          "type": "uint256"
        }
      ],
      "name": "changeProposalMaxOperations",
      "outputs": [],
      "payable": false,
      "stateMutability": "nonpayable",
      "type": "function"
    },
    {
      "constant": false,
      "inputs": [
        {
          "internalType": "uint256",
          "name": "value",
          "type": "uint256"
        }
      ],
      "name": "changeProposalThreshold",
      "outputs": [],
      "payable": false,
      "stateMutability": "nonpayable",
      "type": "function"
    },
    {
      "constant": false,
      "inputs": [
        {
          "internalType": "uint256",
          "name": "value",
          "type": "uint256"
        }
      ],
      "name": "changeQuorumVotes",
      "outputs": [],
      "payable": false,
      "stateMutability": "nonpayable",
      "type": "function"
    },
    {
      "constant": false,
      "inputs": [
        {
          "internalType": "uint256",
          "name": "value",
          "type": "uint256"
        }
      ],
      "name": "changeVotingDelay",
      "outputs": [],
      "payable": false,
      "stateMutability": "nonpayable",
      "type": "function"
    },
    {
      "constant": false,
      "inputs": [
        {
          "internalType": "uint256",
          "name": "value",
          "type": "uint256"
        }
      ],
      "name": "changeVotingPeriod",
      "outputs": [],
      "payable": false,
      "stateMutability": "nonpayable",
      "type": "function"
    },
    {
      "constant": true,
      "inputs": [],
      "name": "chnToken",
      "outputs": [
        {
          "internalType": "contract CHNToken",
          "name": "",
          "type": "address"
        }
      ],
      "payable": false,
      "stateMutability": "view",
      "type": "function"
    },
    {
      "constant": false,
      "inputs": [
        {
          "internalType": "uint256",
          "name": "proposalId",
          "type": "uint256"
        }
      ],
      "name": "execute",
      "outputs": [],
      "payable": true,
      "stateMutability": "payable",
      "type": "function"
    },
    {
      "constant": true,
      "inputs": [
        {
          "internalType": "uint256",
          "name": "proposalId",
          "type": "uint256"
        }
      ],
      "name": "getActions",
      "outputs": [
        {
          "internalType": "address[]",
          "name": "targets",
          "type": "address[]"
        },
        {
          "internalType": "uint256[]",
          "name": "values",
          "type": "uint256[]"
        },
        {
          "internalType": "string[]",
          "name": "signatures",
          "type": "string[]"
        },
        {
          "internalType": "bytes[]",
          "name": "calldatas",
          "type": "bytes[]"
        }
      ],
      "payable": false,
      "stateMutability": "view",
      "type": "function"
    },
    {
      "constant": true,
      "inputs": [
        {
          "internalType": "uint256",
          "name": "proposalId",
          "type": "uint256"
        },
        {
          "internalType": "address",
          "name": "voter",
          "type": "address"
        }
      ],
      "name": "getReceipt",
      "outputs": [
        {
          "components": [
            {
              "internalType": "bool",
              "name": "hasVoted",
              "type": "bool"
            },
            {
              "internalType": "bool",
              "name": "support",
              "type": "bool"
            },
            {
              "internalType": "uint256",
              "name": "votes",
              "type": "uint256"
            }
          ],
          "internalType": "struct CHNGovernanceStorage.Receipt",
          "name": "",
          "type": "tuple"
        }
      ],
      "payable": false,
      "stateMutability": "view",
      "type": "function"
    },
    {
      "constant": true,
      "inputs": [],
      "name": "guardian",
      "outputs": [
        {
          "internalType": "address",
          "name": "",
          "type": "address"
        }
      ],
      "payable": false,
      "stateMutability": "view",
      "type": "function"
    },
    {
      "constant": true,
      "inputs": [
        {
          "internalType": "address",
          "name": "",
          "type": "address"
        }
      ],
      "name": "latestProposalIds",
      "outputs": [
        {
          "internalType": "uint256",
          "name": "",
          "type": "uint256"
        }
      ],
      "payable": false,
      "stateMutability": "view",
      "type": "function"
    },
    {
      "constant": true,
      "inputs": [],
      "name": "name",
      "outputs": [
        {
          "internalType": "string",
          "name": "",
          "type": "string"
        }
      ],
      "payable": false,
      "stateMutability": "view",
      "type": "function"
    },
    {
      "constant": true,
      "inputs": [],
      "name": "proposalCount",
      "outputs": [
        {
          "internalType": "uint256",
          "name": "",
          "type": "uint256"
        }
      ],
      "payable": false,
      "stateMutability": "view",
      "type": "function"
    },
    {
      "constant": true,
      "inputs": [],
      "name": "proposalMaxOperations",
      "outputs": [
        {
          "internalType": "uint256",
          "name": "",
          "type": "uint256"
        }
      ],
      "payable": false,
      "stateMutability": "view",
      "type": "function"
    },
    {
      "constant": true,
      "inputs": [],
      "name": "proposalThreshold",
      "outputs": [
        {
          "internalType": "uint256",
          "name": "",
          "type": "uint256"
        }
      ],
      "payable": false,
      "stateMutability": "view",
      "type": "function"
    },
    {
      "constant": true,
      "inputs": [
        {
          "internalType": "uint256",
          "name": "",
          "type": "uint256"
        }
      ],
      "name": "proposals",
      "outputs": [
        {
          "internalType": "uint256",
          "name": "id",
          "type": "uint256"
        },
        {
          "internalType": "address",
          "name": "proposer",
          "type": "address"
        },
        {
          "internalType": "uint256",
          "name": "eta",
          "type": "uint256"
        },
        {
          "internalType": "uint256",
          "name": "startBlock",
          "type": "uint256"
        },
        {
          "internalType": "uint256",
          "name": "endBlock",
          "type": "uint256"
        },
        {
          "internalType": "uint256",
          "name": "forVotes",
          "type": "uint256"
        },
        {
          "internalType": "uint256",
          "name": "againstVotes",
          "type": "uint256"
        },
        {
          "internalType": "bool",
          "name": "canceled",
          "type": "bool"
        },
        {
          "internalType": "bool",
          "name": "executed",
          "type": "bool"
        }
      ],
      "payable": false,
      "stateMutability": "view",
      "type": "function"
    },
    {
      "constant": false,
      "inputs": [
        {
          "internalType": "address[]",
          "name": "targets",
          "type": "address[]"
        },
        {
          "internalType": "uint256[]",
          "name": "values",
          "type": "uint256[]"
        },
        {
          "internalType": "string[]",
          "name": "signatures",
          "type": "string[]"
        },
        {
          "internalType": "bytes[]",
          "name": "calldatas",
          "type": "bytes[]"
        },
        {
          "internalType": "string",
          "name": "description",
          "type": "string"
        }
      ],
      "name": "propose",
      "outputs": [
        {
          "internalType": "uint256",
          "name": "",
          "type": "uint256"
        }
      ],
      "payable": false,
      "stateMutability": "nonpayable",
      "type": "function"
    },
    {
      "constant": false,
      "inputs": [
        {
          "internalType": "uint256",
          "name": "proposalId",
          "type": "uint256"
        }
      ],
      "name": "queue",
      "outputs": [],
      "payable": false,
      "stateMutability": "nonpayable",
      "type": "function"
    },
    {
      "constant": true,
      "inputs": [],
      "name": "quorumVotes",
      "outputs": [
        {
          "internalType": "uint256",
          "name": "",
          "type": "uint256"
        }
      ],
      "payable": false,
      "stateMutability": "view",
      "type": "function"
    },
    {
      "constant": true,
      "inputs": [
        {
          "internalType": "uint256",
          "name": "proposalId",
          "type": "uint256"
        }
      ],
      "name": "state",
      "outputs": [
        {
          "internalType": "enum CHNGovernanceStorage.ProposalState",
          "name": "",
          "type": "uint8"
        }
      ],
      "payable": false,
      "stateMutability": "view",
      "type": "function"
    },
    {
      "constant": true,
      "inputs": [],
      "name": "timelock",
      "outputs": [
        {
          "internalType": "contract TimelockInterface",
          "name": "",
          "type": "address"
        }
      ],
      "payable": false,
      "stateMutability": "view",
      "type": "function"
    },
    {
      "constant": true,
      "inputs": [],
      "name": "votingDelay",
      "outputs": [
        {
          "internalType": "uint256",
          "name": "",
          "type": "uint256"
        }
      ],
      "payable": false,
      "stateMutability": "view",
      "type": "function"
    },
    {
      "constant": true,
      "inputs": [],
      "name": "votingPeriod",
      "outputs": [
        {
          "internalType": "uint256",
          "name": "",
          "type": "uint256"
        }
      ],
      "payable": false,
      "stateMutability": "view",
      "type": "function"
    }
  ],
  "transactionHash": "0x9b26074369af3996958fb577ff5794fed98e343b3d9b83a8da66e5f97714cd15",
  "args": [
    "0xeACB4Da1Fa4CDd053586f07931809b30A2f2e15E",
    "0x47974400432ADbCCAC6BdedAE73DDAaaFA91A5ec",
    "0xCB2d2B86EE7009B0589d529989504D8f2291BeaD",
    [
      "100000000000000000000",
      "100000000000000000000",
      50,
      1,
      17280
    ]
  ],
  "solcInputHash": "e55d21b6031dafd19211fd44d7213525",
  "bytecode": "0x60806040523480156200001157600080fd5b5060405162003e5b38038062003e5b833981016040819052620000349162000107565b600580546001600160a01b038087166001600160a01b031992831617909255600680548684169083161790556007805492851692909116919091179055805181906000906200007f57fe5b6020026020010151600081905550806001815181106200009b57fe5b602002602001015160018190555080600281518110620000b757fe5b602002602001015160028190555080600381518110620000d357fe5b602002602001015160038190555080600481518110620000ef57fe5b6020026020010151600481905550505050506200024a565b600080600080608085870312156200011d578384fd5b84516200012a8162000231565b809450506020808601516200013f8162000231565b6040870151909450620001528162000231565b60608701519093506001600160401b038111156200016e578283fd5b80870188601f82011262000180578384fd5b8051915062000199620001938362000211565b620001ea565b82815283810190828501858502840186018c1015620001b6578687fd5b8693505b84841015620001da578051835260019390930192918501918501620001ba565b50979a9699509497505050505050565b6040518181016001600160401b03811182821017156200020957600080fd5b604052919050565b60006001600160401b0382111562000227578081fd5b5060209081020190565b6001600160a01b03811681146200024757600080fd5b50565b613c01806200025a6000396000f3fe6080604052600436106101e35760003560e01c8063727bb39911610102578063da35c66411610095578063e23a9a5211610064578063e23a9a5214610532578063e4cfde541461055f578063f9dabc551461057f578063fe0d94c11461059f576101e3565b8063da35c664146104c8578063da95691a146104dd578063ddf0b009146104fd578063deaaa7cc1461051d576101e3565b8063a8f0a82e116100d1578063a8f0a82e14610469578063b58131b014610489578063b9a619611461049e578063d33219b4146104b3576101e3565b8063727bb3991461040a578063760fbc131461041f5780637bdbe4d0146104345780639150067114610449576101e3565b80632c4548cf1161017a57806340e58ee51161014957806340e58ee514610388578063452a9320146103a85780634634c61f146103ca5780635832cf59146103ea576101e3565b80632c4548cf146102f6578063328dd982146103165780633932abb1146103465780633e4f49e61461035b576101e3565b806317977c61116101b657806317977c611461028c57806320606b70146102ac57806321f43e42146102c157806324bc1a64146102e1576101e3565b8063013cf08b146101e857806302a251a31461022657806306fdde031461024857806315373e3d1461026a575b600080fd5b3480156101f457600080fd5b50610208610203366004612bb0565b6105b2565b60405161021d99989796959493929190613a94565b60405180910390f35b34801561023257600080fd5b5061023b610619565b60405161021d91906130fe565b34801561025457600080fd5b5061025d61061f565b60405161021d9190613182565b34801561027657600080fd5b5061028a610285366004612bf4565b610658565b005b34801561029857600080fd5b5061023b6102a73660046129f5565b610667565b3480156102b857600080fd5b5061023b610679565b3480156102cd57600080fd5b5061028a6102dc366004612a10565b610690565b3480156102ed57600080fd5b5061023b6107ca565b34801561030257600080fd5b5061028a610311366004612bb0565b6107d0565b34801561032257600080fd5b50610336610331366004612bb0565b610826565b60405161021d94939291906130a7565b34801561035257600080fd5b5061023b610afe565b34801561036757600080fd5b5061037b610376366004612bb0565b610b04565b60405161021d919061316e565b34801561039457600080fd5b5061028a6103a3366004612bb0565b610cc1565b3480156103b457600080fd5b506103bd610fa5565b60405161021d9190612f36565b3480156103d657600080fd5b5061028a6103e5366004612c23565b610fc1565b3480156103f657600080fd5b5061028a610405366004612bb0565b6111a3565b34801561041657600080fd5b506103bd6111f9565b34801561042b57600080fd5b5061028a611215565b34801561044057600080fd5b5061023b611290565b34801561045557600080fd5b5061028a610464366004612a10565b611296565b34801561047557600080fd5b5061028a610484366004612bb0565b6113a0565b34801561049557600080fd5b5061023b6113f6565b3480156104aa57600080fd5b5061028a6113fc565b3480156104bf57600080fd5b506103bd6114d1565b3480156104d457600080fd5b5061023b6114ed565b3480156104e957600080fd5b5061023b6104f8366004612a3a565b6114f3565b34801561050957600080fd5b5061028a610518366004612bb0565b6119f5565b34801561052957600080fd5b5061023b611ced565b34801561053e57600080fd5b5061055261054d366004612bc8565b611cf9565b60405161021d91906139ce565b34801561056b57600080fd5b5061028a61057a366004612bb0565b611d6a565b34801561058b57600080fd5b5061028a61059a366004612bb0565b611dc0565b61028a6105ad366004612bb0565b611e16565b60096020819052600091825260409091208054600182015460028301546007840154600885015495850154600a860154600b90960154949673ffffffffffffffffffffffffffffffffffffffff909416959294919392909160ff8082169161010090041689565b60045481565b6040518060400160405280600e81526020017f436861696e20476f7665726e6f7200000000000000000000000000000000000081525081565b61066333838361204a565b5050565b600a6020526000908152604090205481565b60405161068590612e72565b604051809103902081565b60075473ffffffffffffffffffffffffffffffffffffffff1633146106ea576040517f08c379a00000000000000000000000000000000000000000000000000000000081526004016106e1906132f8565b60405180910390fd5b60055460405173ffffffffffffffffffffffffffffffffffffffff90911690630825f38f908290600090610722908790602001612f36565b604051602081830303815290604052856040518563ffffffff1660e01b81526004016107519493929190612f57565b600060405180830381600087803b15801561076b57600080fd5b505af115801561077f573d6000803e3d6000fd5b505050506040513d6000823e601f3d9081017fffffffffffffffffffffffffffffffffffffffffffffffffffffffffffffffe01682016040526107c59190810190612b3a565b505050565b60005481565b60055473ffffffffffffffffffffffffffffffffffffffff163314610821576040517f08c379a00000000000000000000000000000000000000000000000000000000081526004016106e19061370c565b600255565b606080606080600060096000878152602001908152602001600020905080600301816004018260050183600601838054806020026020016040519081016040528092919081815260200182805480156108b557602002820191906000526020600020905b815473ffffffffffffffffffffffffffffffffffffffff16815260019091019060200180831161088a575b505050505093508280548060200260200160405190810160405280929190818152602001828054801561090757602002820191906000526020600020905b8154815260200190600101908083116108f3575b5050505050925081805480602002602001604051908101604052809291908181526020016000905b828210156109f85760008481526020908190208301805460408051601f60027fffffffffffffffffffffffffffffffffffffffffffffffffffffffffffffffff6101006001871615020190941693909304928301859004850281018501909152818152928301828280156109e45780601f106109b9576101008083540402835291602001916109e4565b820191906000526020600020905b8154815290600101906020018083116109c757829003601f168201915b50505050508152602001906001019061092f565b50505050915080805480602002602001604051908101604052809291908181526020016000905b82821015610ae85760008481526020908190208301805460408051601f60027fffffffffffffffffffffffffffffffffffffffffffffffffffffffffffffffff610100600187161502019094169390930492830185900485028101850190915281815292830182828015610ad45780601f10610aa957610100808354040283529160200191610ad4565b820191906000526020600020905b815481529060010190602001808311610ab757829003601f168201915b505050505081526020019060010190610a1f565b5050505090509450945094509450509193509193565b60035481565b60008160085410158015610b185750600082115b610b4e576040517f08c379a00000000000000000000000000000000000000000000000000000000081526004016106e19061337b565b6000828152600960205260409020600b81015460ff1615610b73576002915050610cbc565b80600701544311610b88576000915050610cbc565b80600801544311610b9d576001915050610cbc565b80600a01548160090154111580610bb957506000548160090154105b15610bc8576003915050610cbc565b6002810154610bdb576004915050610cbc565b600b810154610100900460ff1615610bf7576007915050610cbc565b6002810154600554604080517fc1a287e20000000000000000000000000000000000000000000000000000000081529051610ca6939273ffffffffffffffffffffffffffffffffffffffff169163c1a287e2916004808301926020929190829003018186803b158015610c6957600080fd5b505afa158015610c7d573d6000803e3d6000fd5b505050506040513d601f19601f82011682018060405250610ca19190810190612b22565b612283565b4210610cb6576006915050610cbc565b60059150505b919050565b6000610ccc82610b04565b90506007816007811115610cdc57fe5b1415610d14576040517f08c379a00000000000000000000000000000000000000000000000000000000081526004016106e1906138b7565b600082815260096020526040902060075473ffffffffffffffffffffffffffffffffffffffff16331480610dee57506001546006546040517f70a0823100000000000000000000000000000000000000000000000000000000815273ffffffffffffffffffffffffffffffffffffffff909116906370a0823190610d9c903390600401612f36565b60206040518083038186803b158015610db457600080fd5b505afa158015610dc8573d6000803e3d6000fd5b505050506040513d601f19601f82011682018060405250610dec9190810190612b22565b105b610e24576040517f08c379a00000000000000000000000000000000000000000000000000000000081526004016106e1906135cf565b600b810180547fffffffffffffffffffffffffffffffffffffffffffffffffffffffffffffff0016600117905560005b6003820154811015610f685760055460038301805473ffffffffffffffffffffffffffffffffffffffff9092169163591fcdfe919084908110610e9357fe5b60009182526020909120015460048501805473ffffffffffffffffffffffffffffffffffffffff9092169185908110610ec857fe5b9060005260206000200154856005018581548110610ee257fe5b90600052602060002001866006018681548110610efb57fe5b9060005260206000200187600201546040518663ffffffff1660e01b8152600401610f2a959493929190613060565b600060405180830381600087803b158015610f4457600080fd5b505af1158015610f58573d6000803e3d6000fd5b505060019092019150610e549050565b507f789cf55be980739dad1d0699b93b58e806b51c9d96619bfa8fe0a28abaa7b30c83604051610f9891906130fe565b60405180910390a1505050565b60075473ffffffffffffffffffffffffffffffffffffffff1681565b6000604051610fcf90612e72565b60408051918290038220828201909152600e82527f436861696e20476f7665726e6f720000000000000000000000000000000000006020909201919091527f8a978a11f76c43af6b43f115dd55c000b4382d9f05d80ca2971564bf6c703d7c6110366122c9565b3060405160200161104a9493929190613107565b604051602081830303815290604052805190602001209050600060405161107090612ee7565b6040519081900381206110899189908990602001613138565b604051602081830303815290604052805190602001209050600082826040516020016110b6929190612e3c565b6040516020818303038152906040528051906020012090506000600182888888604051600081526020016040526040516110f39493929190613150565b6020604051602081039080840390855afa158015611115573d6000803e3d6000fd5b50506040517fffffffffffffffffffffffffffffffffffffffffffffffffffffffffffffffe0015191505073ffffffffffffffffffffffffffffffffffffffff811661118d576040517f08c379a00000000000000000000000000000000000000000000000000000000081526004016106e19061385a565b611198818a8a61204a565b505050505050505050565b60055473ffffffffffffffffffffffffffffffffffffffff1633146111f4576040517f08c379a00000000000000000000000000000000000000000000000000000000081526004016106e19061370c565b600455565b60065473ffffffffffffffffffffffffffffffffffffffff1681565b60075473ffffffffffffffffffffffffffffffffffffffff163314611266576040517f08c379a00000000000000000000000000000000000000000000000000000000081526004016106e190613971565b600780547fffffffffffffffffffffffff0000000000000000000000000000000000000000169055565b60025481565b60075473ffffffffffffffffffffffffffffffffffffffff1633146112e7576040517f08c379a00000000000000000000000000000000000000000000000000000000081526004016106e190613435565b60055460405173ffffffffffffffffffffffffffffffffffffffff90911690633a66f90190829060009061131f908790602001612f36565b604051602081830303815290604052856040518563ffffffff1660e01b815260040161134e9493929190612f57565b602060405180830381600087803b15801561136857600080fd5b505af115801561137c573d6000803e3d6000fd5b505050506040513d601f19601f820116820180604052506107c59190810190612b22565b60055473ffffffffffffffffffffffffffffffffffffffff1633146113f1576040517f08c379a00000000000000000000000000000000000000000000000000000000081526004016106e19061370c565b600055565b60015481565b60075473ffffffffffffffffffffffffffffffffffffffff16331461144d576040517f08c379a00000000000000000000000000000000000000000000000000000000081526004016106e190613195565b600560009054906101000a900473ffffffffffffffffffffffffffffffffffffffff1673ffffffffffffffffffffffffffffffffffffffff16630e18b6816040518163ffffffff1660e01b8152600401600060405180830381600087803b1580156114b757600080fd5b505af11580156114cb573d6000803e3d6000fd5b50505050565b60055473ffffffffffffffffffffffffffffffffffffffff1681565b60085481565b6001546006546040517f70a082310000000000000000000000000000000000000000000000000000000081526000929173ffffffffffffffffffffffffffffffffffffffff16906370a082319061154e903390600401612f36565b60206040518083038186803b15801561156657600080fd5b505afa15801561157a573d6000803e3d6000fd5b505050506040513d601f19601f8201168201806040525061159e9190810190612b22565b116115d5576040517f08c379a00000000000000000000000000000000000000000000000000000000081526004016106e1906137fd565b845186511480156115e7575083518651145b80156115f4575082518651145b61162a576040517f08c379a00000000000000000000000000000000000000000000000000000000081526004016106e19061354c565b8551611662576040517f08c379a00000000000000000000000000000000000000000000000000000000081526004016106e1906137a0565b6002548651111561169f576040517f08c379a00000000000000000000000000000000000000000000000000000000081526004016106e1906134b8565b336000908152600a602052604090205480156117505760006116c082610b04565b905060018160078111156116d057fe5b1415611708576040517f08c379a00000000000000000000000000000000000000000000000000000000081526004016106e19061362c565b600081600781111561171657fe5b141561174e576040517f08c379a00000000000000000000000000000000000000000000000000000000081526004016106e190613743565b505b600061175e43600354612283565b9050600061176e82600454612283565b600880546001019055905061178161247a565b604051806101a0016040528060085481526020013373ffffffffffffffffffffffffffffffffffffffff168152602001600081526020018b81526020018a815260200189815260200188815260200184815260200183815260200160008152602001600081526020016000151581526020016000151581525090508060096000836000015181526020019081526020016000206000820151816000015560208201518160010160006101000a81548173ffffffffffffffffffffffffffffffffffffffff021916908373ffffffffffffffffffffffffffffffffffffffff16021790555060408201518160020155606082015181600301908051906020019061188b9291906124fc565b50608082015180516118a7916004840191602090910190612586565b5060a082015180516118c39160058401916020909101906125cd565b5060c082015180516118df916006840191602090910190612626565b5060e082015181600701556101008201518160080155610120820151816009015561014082015181600a015561016082015181600b0160006101000a81548160ff02191690831515021790555061018082015181600b0160016101000a81548160ff0219169083151502179055509050508060000151600a6000836020015173ffffffffffffffffffffffffffffffffffffffff1673ffffffffffffffffffffffffffffffffffffffff168152602001908152602001600020819055507f7d84a6263ae0d98d3329bd7b46bb4e8d6f98cd35a7adb45c274c8b7fd5ebd5e08160000151338c8c8c8c89898e6040516119df999897969594939291906139f3565b60405180910390a1519998505050505050505050565b6004611a0082610b04565b6007811115611a0b57fe5b14611a42576040517f08c379a00000000000000000000000000000000000000000000000000000000081526004016106e1906131f2565b600081815260096020908152604080832060055482517f6a42b8f80000000000000000000000000000000000000000000000000000000081529251919493611ac293429373ffffffffffffffffffffffffffffffffffffffff90931692636a42b8f892600480840193919291829003018186803b158015610c6957600080fd5b905060005b6003830154811015611cb357611cab836003018281548110611ae557fe5b60009182526020909120015460048501805473ffffffffffffffffffffffffffffffffffffffff9092169184908110611b1a57fe5b9060005260206000200154856005018481548110611b3457fe5b600091825260209182902001805460408051601f60027fffffffffffffffffffffffffffffffffffffffffffffffffffffffffffffffff610100600187161502019094169390930492830185900485028101850190915281815292830182828015611be05780601f10611bb557610100808354040283529160200191611be0565b820191906000526020600020905b815481529060010190602001808311611bc357829003601f168201915b5050505050866006018581548110611bf457fe5b600091825260209182902001805460408051601f60027fffffffffffffffffffffffffffffffffffffffffffffffffffffffffffffffff610100600187161502019094169390930492830185900485028101850190915281815292830182828015611ca05780601f10611c7557610100808354040283529160200191611ca0565b820191906000526020600020905b815481529060010190602001808311611c8357829003601f168201915b5050505050866122ce565b600101611ac7565b50600282018190556040517f9a2e42fd6722813d69113e7d0079d3d940171428df7373df9c7f7617cfda289290610f989085908490613aed565b60405161068590612ee7565b611d0161267f565b50600082815260096020908152604080832073ffffffffffffffffffffffffffffffffffffffff85168452600c018252918290208251606081018452815460ff808216151583526101009091041615159281019290925260010154918101919091525b92915050565b60055473ffffffffffffffffffffffffffffffffffffffff163314611dbb576040517f08c379a00000000000000000000000000000000000000000000000000000000081526004016106e19061370c565b600355565b60055473ffffffffffffffffffffffffffffffffffffffff163314611e11576040517f08c379a00000000000000000000000000000000000000000000000000000000081526004016106e19061370c565b600155565b6005611e2182610b04565b6007811115611e2c57fe5b14611e63576040517f08c379a00000000000000000000000000000000000000000000000000000000081526004016106e190613275565b6000818152600960205260408120600b810180547fffffffffffffffffffffffffffffffffffffffffffffffffffffffffffff00ff16610100179055905b600382015481101561200e5760055460048301805473ffffffffffffffffffffffffffffffffffffffff90921691630825f38f919084908110611ee057fe5b9060005260206000200154846003018481548110611efa57fe5b60009182526020909120015460048601805473ffffffffffffffffffffffffffffffffffffffff9092169186908110611f2f57fe5b9060005260206000200154866005018681548110611f4957fe5b90600052602060002001876006018781548110611f6257fe5b9060005260206000200188600201546040518763ffffffff1660e01b8152600401611f91959493929190613060565b6000604051808303818588803b158015611faa57600080fd5b505af1158015611fbe573d6000803e3d6000fd5b50505050506040513d6000823e601f3d9081017fffffffffffffffffffffffffffffffffffffffffffffffffffffffffffffffe01682016040526120059190810190612b3a565b50600101611ea1565b507f712ae1383f79ac853f8d882153778e0260ef8f03b504e2866e0593e04d2b291f8260405161203e91906130fe565b60405180910390a15050565b600161205583610b04565b600781111561206057fe5b14612097576040517f08c379a00000000000000000000000000000000000000000000000000000000081526004016106e190613914565b600082815260096020908152604080832073ffffffffffffffffffffffffffffffffffffffff87168452600c8101909252909120805460ff1615612107576040517f08c379a00000000000000000000000000000000000000000000000000000000081526004016106e1906133d8565b6006546040517f70a0823100000000000000000000000000000000000000000000000000000000815260009173ffffffffffffffffffffffffffffffffffffffff16906370a082319061215e908990600401612f36565b60206040518083038186803b15801561217657600080fd5b505afa15801561218a573d6000803e3d6000fd5b505050506040513d601f19601f820116820180604052506121ae9190810190612b22565b905083156121ce576121c4836009015482612283565b60098401556121e2565b6121dc83600a015482612283565b600a8401555b815460017fffffffffffffffffffffffffffffffffffffffffffffffffffffffffffffff0090911681177fffffffffffffffffffffffffffffffffffffffffffffffffffffffffffff00ff166101008615150217835582018190556040517f877856338e13f63d0c36822ff0ef736b80934cd90574a3a5bc9262c39d217c4690612273908890889088908690612fd1565b60405180910390a1505050505050565b6000828201838110156122c2576040517f08c379a00000000000000000000000000000000000000000000000000000000081526004016106e190613515565b9392505050565b465b90565b60055460405173ffffffffffffffffffffffffffffffffffffffff9091169063f2b06537906123099088908890889088908890602001613006565b604051602081830303815290604052805190602001206040518263ffffffff1660e01b815260040161233b91906130fe565b60206040518083038186803b15801561235357600080fd5b505afa158015612367573d6000803e3d6000fd5b505050506040513d601f19601f8201168201806040525061238b9190810190612b06565b156123c2576040517f08c379a00000000000000000000000000000000000000000000000000000000081526004016106e190613689565b6005546040517f3a66f90100000000000000000000000000000000000000000000000000000000815273ffffffffffffffffffffffffffffffffffffffff90911690633a66f901906124209088908890889088908890600401613006565b602060405180830381600087803b15801561243a57600080fd5b505af115801561244e573d6000803e3d6000fd5b505050506040513d601f19601f820116820180604052506124729190810190612b22565b505050505050565b604051806101a0016040528060008152602001600073ffffffffffffffffffffffffffffffffffffffff1681526020016000815260200160608152602001606081526020016060815260200160608152602001600081526020016000815260200160008152602001600081526020016000151581526020016000151581525090565b828054828255906000526020600020908101928215612576579160200282015b8281111561257657825182547fffffffffffffffffffffffff00000000000000000000000000000000000000001673ffffffffffffffffffffffffffffffffffffffff90911617825560209092019160019091019061251c565b5061258292915061269f565b5090565b8280548282559060005260206000209081019282156125c1579160200282015b828111156125c15782518255916020019190600101906125a6565b506125829291506126db565b82805482825590600052602060002090810192821561261a579160200282015b8281111561261a578251805161260a9184916020909101906126f5565b50916020019190600101906125ed565b50612582929150612762565b828054828255906000526020600020908101928215612673579160200282015b8281111561267357825180516126639184916020909101906126f5565b5091602001919060010190612646565b50612582929150612785565b604080516060810182526000808252602082018190529181019190915290565b6122cb91905b808211156125825780547fffffffffffffffffffffffff00000000000000000000000000000000000000001681556001016126a5565b6122cb91905b8082111561258257600081556001016126e1565b828054600181600116156101000203166002900490600052602060002090601f016020900481019282601f1061273657805160ff19168380011785556125c1565b828001600101855582156125c157918201828111156125c15782518255916020019190600101906125a6565b6122cb91905b8082111561258257600061277c82826127a8565b50600101612768565b6122cb91905b8082111561258257600061279f82826127a8565b5060010161278b565b50805460018160011615610100020316600290046000825580601f106127ce57506127ec565b601f0160209004906000526020600020908101906127ec91906126db565b50565b803573ffffffffffffffffffffffffffffffffffffffff81168114611d6457600080fd5b600082601f830112612823578081fd5b813561283661283182613b22565b613afb565b81815291506020808301908481018184028601820187101561285757600080fd5b60005b8481101561287e5761286c88836127ef565b8452928201929082019060010161285a565b505050505092915050565b600082601f830112612899578081fd5b81356128a761283182613b22565b8181529150602080830190840160005b838110156128e4576128cf87602084358901016129a7565b835260209283019291909101906001016128b7565b5050505092915050565b600082601f8301126128fe578081fd5b813561290c61283182613b22565b8181529150602080830190840160005b838110156128e45761293487602084358901016129a7565b8352602092830192919091019060010161291c565b600082601f830112612959578081fd5b813561296761283182613b22565b81815291506020808301908481018184028601820187101561298857600080fd5b60005b8481101561287e5781358452928201929082019060010161298b565b600082601f8301126129b7578081fd5b81356129c561283182613b42565b91508082528360208285010111156129dc57600080fd5b8060208401602084013760009082016020015292915050565b600060208284031215612a06578081fd5b6122c283836127ef565b60008060408385031215612a22578081fd5b612a2c84846127ef565b946020939093013593505050565b600080600080600060a08688031215612a51578081fd5b853567ffffffffffffffff80821115612a68578283fd5b612a7489838a01612813565b96506020880135915080821115612a89578283fd5b612a9589838a01612949565b95506040880135915080821115612aaa578283fd5b612ab689838a016128ee565b94506060880135915080821115612acb578283fd5b612ad789838a01612889565b93506080880135915080821115612aec578283fd5b50612af9888289016129a7565b9150509295509295909350565b600060208284031215612b17578081fd5b81516122c281613bb0565b600060208284031215612b33578081fd5b5051919050565b600060208284031215612b4b578081fd5b815167ffffffffffffffff811115612b61578182fd5b80830184601f820112612b72578283fd5b80519150612b8261283183613b42565b828152856020848401011115612b96578384fd5b612ba7836020830160208501613b84565b95945050505050565b600060208284031215612bc1578081fd5b5035919050565b60008060408385031215612bda578182fd5b82359150612beb84602085016127ef565b90509250929050565b60008060408385031215612c06578182fd5b823591506020830135612c1881613bb0565b809150509250929050565b600080600080600060a08688031215612c3a578283fd5b853594506020860135612c4c81613bb0565b9350604086013560ff81168114612c61578384fd5b94979396509394606081013594506080013592915050565b6000815180845260208401935060208301825b82811015612cc057815173ffffffffffffffffffffffffffffffffffffffff16865260209586019590910190600101612c8c565b5093949350505050565b600081518084526020840180819550602083028101915060208501845b84811015612d15578284038852612cff848351612d52565b6020988901989094509190910190600101612ce7565b50919695505050505050565b6000815180845260208401935060208301825b82811015612cc0578151865260209586019590910190600101612d34565b60008151808452612d6a816020860160208601613b84565b601f017fffffffffffffffffffffffffffffffffffffffffffffffffffffffffffffffe0169290920160200192915050565b600081546001811660008114612db95760018114612df557612e34565b607f600283041685527fffffffffffffffffffffffffffffffffffffffffffffffffffffffffffffff0082166020860152604085019250612e34565b6002820480865284600052602060002060005b82811015612e2a5781546020828a010152600182019150602081019050612e08565b8701602001945050505b505092915050565b7f190100000000000000000000000000000000000000000000000000000000000081526002810192909252602282015260420190565b7f454950373132446f6d61696e28737472696e67206e616d652c75696e7432353681527f20636861696e49642c6164647265737320766572696679696e67436f6e74726160208201527f6374290000000000000000000000000000000000000000000000000000000000604082015260430190565b7f42616c6c6f742875696e743235362070726f706f73616c49642c626f6f6c207381527f7570706f72742900000000000000000000000000000000000000000000000000602082015260270190565b73ffffffffffffffffffffffffffffffffffffffff91909116815260200190565b600073ffffffffffffffffffffffffffffffffffffffff8616825284602083015260a06040830152601860a08301527f73657450656e64696e6741646d696e286164647265737329000000000000000060c083015260e06060830152612fc060e0830185612d52565b905082608083015295945050505050565b73ffffffffffffffffffffffffffffffffffffffff949094168452602084019290925215156040830152606082015260800190565b600073ffffffffffffffffffffffffffffffffffffffff8716825285602083015260a0604083015261303b60a0830186612d52565b828103606084015261304d8186612d52565b9150508260808301529695505050505050565b600073ffffffffffffffffffffffffffffffffffffffff8716825285602083015260a0604083015261309560a0830186612d9c565b828103606084015261304d8186612d9c565b6000608082526130ba6080830187612c79565b82810360208401526130cc8187612d21565b83810360408501526130de8187612cca565b91505082810360608401526130f38185612cca565b979650505050505050565b90815260200190565b9384526020840192909252604083015273ffffffffffffffffffffffffffffffffffffffff16606082015260800190565b92835260208301919091521515604082015260600190565b93845260ff9290921660208401526040830152606082015260800190565b602081016008831061317c57fe5b91905290565b6000602082526122c26020830184612d52565b60208082526039908201527f476f7665726e6f72416c7068613a3a5f5f61636365707441646d696e3a20736560408201527f6e646572206d75737420626520676f7620677561726469616e00000000000000606082015260800190565b60208082526044908201527f476f7665726e6f72416c7068613a3a71756575653a2070726f706f73616c206360408201527f616e206f6e6c792062652071756575656420696620697420697320737563636560608201527f6564656400000000000000000000000000000000000000000000000000000000608082015260a00190565b60208082526045908201527f476f7665726e6f72416c7068613a3a657865637574653a2070726f706f73616c60408201527f2063616e206f6e6c79206265206578656375746564206966206974206973207160608201527f7565756564000000000000000000000000000000000000000000000000000000608082015260a00190565b6020808252604c908201527f476f7665726e6f72416c7068613a3a5f5f6578656375746553657454696d656c60408201527f6f636b50656e64696e6741646d696e3a2073656e646572206d7573742062652060608201527f676f7620677561726469616e0000000000000000000000000000000000000000608082015260a00190565b60208082526029908201527f476f7665726e6f72416c7068613a3a73746174653a20696e76616c696420707260408201527f6f706f73616c2069640000000000000000000000000000000000000000000000606082015260800190565b6020808252602d908201527f476f7665726e6f72416c7068613a3a5f63617374566f74653a20766f7465722060408201527f616c726561647920766f74656400000000000000000000000000000000000000606082015260800190565b6020808252604a908201527f476f7665726e6f72416c7068613a3a5f5f717565756553657454696d656c6f6360408201527f6b50656e64696e6741646d696e3a2073656e646572206d75737420626520676f60608201527f7620677561726469616e00000000000000000000000000000000000000000000608082015260a00190565b60208082526028908201527f476f7665726e6f72416c7068613a3a70726f706f73653a20746f6f206d616e7960408201527f20616374696f6e73000000000000000000000000000000000000000000000000606082015260800190565b60208082526011908201527f6164646974696f6e206f766572666c6f77000000000000000000000000000000604082015260600190565b60208082526044908201527f476f7665726e6f72416c7068613a3a70726f706f73653a2070726f706f73616c60408201527f2066756e6374696f6e20696e666f726d6174696f6e206172697479206d69736d60608201527f6174636800000000000000000000000000000000000000000000000000000000608082015260a00190565b6020808252602f908201527f476f7665726e6f72416c7068613a3a63616e63656c3a2070726f706f7365722060408201527f61626f7665207468726573686f6c640000000000000000000000000000000000606082015260800190565b60208082526038908201527f476f7665726e6f72416c7068613a3a70726f706f73653a20666f756e6420616e60408201527f20616c7265616479206163746976652070726f706f73616c0000000000000000606082015260800190565b60208082526044908201527f476f7665726e6f72416c7068613a3a5f71756575654f725265766572743a207060408201527f726f706f73616c20616374696f6e20616c72656164792071756575656420617460608201527f2065746100000000000000000000000000000000000000000000000000000000608082015260a00190565b6020808252601c908201527f476f7665726e6f72416c7068613a204f6e6c792054696d656c6f636b00000000604082015260600190565b60208082526039908201527f476f7665726e6f72416c7068613a3a70726f706f73653a20666f756e6420616e60408201527f20616c72656164792070656e64696e672070726f706f73616c00000000000000606082015260800190565b6020808252602c908201527f476f7665726e6f72416c7068613a3a70726f706f73653a206d7573742070726f60408201527f7669646520616374696f6e730000000000000000000000000000000000000000606082015260800190565b6020808252603f908201527f476f7665726e6f72416c7068613a3a70726f706f73653a2070726f706f73657260408201527f20766f7465732062656c6f772070726f706f73616c207468726573686f6c6400606082015260800190565b6020808252602f908201527f476f7665726e6f72416c7068613a3a63617374566f746542795369673a20696e60408201527f76616c6964207369676e61747572650000000000000000000000000000000000606082015260800190565b60208082526036908201527f476f7665726e6f72416c7068613a3a63616e63656c3a2063616e6e6f7420636160408201527f6e63656c2065786563757465642070726f706f73616c00000000000000000000606082015260800190565b6020808252602a908201527f476f7665726e6f72416c7068613a3a5f63617374566f74653a20766f74696e6760408201527f20697320636c6f73656400000000000000000000000000000000000000000000606082015260800190565b60208082526036908201527f476f7665726e6f72416c7068613a3a5f5f61626469636174653a2073656e646560408201527f72206d75737420626520676f7620677561726469616e00000000000000000000606082015260800190565b8151151581526020808301511515908201526040918201519181019190915260600190565b60006101208b835273ffffffffffffffffffffffffffffffffffffffff8b166020840152806040840152613a298184018b612c79565b8381036060850152613a3b818b612d21565b9150508281036080840152613a508189612cca565b83810360a0850152613a628189612cca565b9150508560c08401528460e0840152828103610100840152613a848185612d52565b9c9b505050505050505050505050565b98895273ffffffffffffffffffffffffffffffffffffffff97909716602089015260408801959095526060870193909352608086019190915260a085015260c0840152151560e083015215156101008201526101200190565b918252602082015260400190565b60405181810167ffffffffffffffff81118282101715613b1a57600080fd5b604052919050565b600067ffffffffffffffff821115613b38578081fd5b5060209081020190565b600067ffffffffffffffff821115613b58578081fd5b50601f017fffffffffffffffffffffffffffffffffffffffffffffffffffffffffffffffe01660200190565b60005b83811015613b9f578181015183820152602001613b87565b838111156114cb5750506000910152565b80151581146127ec57600080fdfea365627a7a7231582095dee9732b36db389290c3f20cc29bba1be65921e068a6fc2d8524bb03949da56c6578706572696d656e74616cf564736f6c63430005100040",
  "devdoc": {
    "methods": {}
  },
  "userdoc": {
    "methods": {}
  },
  "storageLayout": {
    "storage": [
      {
        "astId": 1199,
        "contract": "contracts/CHNGovernance.sol:CHNGovernance",
        "label": "quorumVotes",
        "offset": 0,
        "slot": "0",
        "type": "t_uint256"
      },
      {
        "astId": 1201,
        "contract": "contracts/CHNGovernance.sol:CHNGovernance",
        "label": "proposalThreshold",
        "offset": 0,
        "slot": "1",
        "type": "t_uint256"
      },
      {
        "astId": 1203,
        "contract": "contracts/CHNGovernance.sol:CHNGovernance",
        "label": "proposalMaxOperations",
        "offset": 0,
        "slot": "2",
        "type": "t_uint256"
      },
      {
        "astId": 1205,
        "contract": "contracts/CHNGovernance.sol:CHNGovernance",
        "label": "votingDelay",
        "offset": 0,
        "slot": "3",
        "type": "t_uint256"
      },
      {
        "astId": 1207,
        "contract": "contracts/CHNGovernance.sol:CHNGovernance",
        "label": "votingPeriod",
        "offset": 0,
        "slot": "4",
        "type": "t_uint256"
      },
      {
        "astId": 1209,
        "contract": "contracts/CHNGovernance.sol:CHNGovernance",
        "label": "timelock",
        "offset": 0,
        "slot": "5",
        "type": "t_contract(TimelockInterface)1186"
      },
      {
        "astId": 1211,
        "contract": "contracts/CHNGovernance.sol:CHNGovernance",
        "label": "chnToken",
        "offset": 0,
        "slot": "6",
        "type": "t_contract(CHNToken)1194"
      },
      {
        "astId": 1213,
        "contract": "contracts/CHNGovernance.sol:CHNGovernance",
        "label": "guardian",
        "offset": 0,
        "slot": "7",
        "type": "t_address"
      },
      {
        "astId": 1215,
        "contract": "contracts/CHNGovernance.sol:CHNGovernance",
        "label": "proposalCount",
        "offset": 0,
        "slot": "8",
        "type": "t_uint256"
      },
      {
        "astId": 1270,
        "contract": "contracts/CHNGovernance.sol:CHNGovernance",
        "label": "proposals",
        "offset": 0,
        "slot": "9",
        "type": "t_mapping(t_uint256,t_struct(Proposal)1250_storage)"
      },
      {
        "astId": 1274,
        "contract": "contracts/CHNGovernance.sol:CHNGovernance",
        "label": "latestProposalIds",
        "offset": 0,
        "slot": "10",
        "type": "t_mapping(t_address,t_uint256)"
      }
    ],
    "types": {
      "t_address": {
        "encoding": "inplace",
        "label": "address",
        "numberOfBytes": "20"
      },
      "t_array(t_address)dyn_storage": {
        "base": "t_address",
        "encoding": "dynamic_array",
        "label": "address[]",
        "numberOfBytes": "32"
      },
      "t_array(t_bytes_storage)dyn_storage": {
        "base": "t_bytes_storage",
        "encoding": "dynamic_array",
        "label": "bytes[]",
        "numberOfBytes": "32"
      },
      "t_array(t_string_storage)dyn_storage": {
        "base": "t_string_storage",
        "encoding": "dynamic_array",
        "label": "string[]",
        "numberOfBytes": "32"
      },
      "t_array(t_uint256)dyn_storage": {
        "base": "t_uint256",
        "encoding": "dynamic_array",
        "label": "uint256[]",
        "numberOfBytes": "32"
      },
      "t_bool": {
        "encoding": "inplace",
        "label": "bool",
        "numberOfBytes": "1"
      },
      "t_bytes_storage": {
        "encoding": "bytes",
        "label": "bytes",
        "numberOfBytes": "32"
      },
      "t_contract(CHNToken)1194": {
        "encoding": "inplace",
        "label": "contract CHNToken",
        "numberOfBytes": "20"
      },
      "t_contract(TimelockInterface)1186": {
        "encoding": "inplace",
        "label": "contract TimelockInterface",
        "numberOfBytes": "20"
      },
      "t_mapping(t_address,t_struct(Receipt)1257_storage)": {
        "encoding": "mapping",
        "key": "t_address",
        "label": "mapping(address => struct CHNGovernanceStorage.Receipt)",
        "numberOfBytes": "32",
        "value": "t_struct(Receipt)1257_storage"
      },
      "t_mapping(t_address,t_uint256)": {
        "encoding": "mapping",
        "key": "t_address",
        "label": "mapping(address => uint256)",
        "numberOfBytes": "32",
        "value": "t_uint256"
      },
      "t_mapping(t_uint256,t_struct(Proposal)1250_storage)": {
        "encoding": "mapping",
        "key": "t_uint256",
        "label": "mapping(uint256 => struct CHNGovernanceStorage.Proposal)",
        "numberOfBytes": "32",
        "value": "t_struct(Proposal)1250_storage"
      },
      "t_string_storage": {
        "encoding": "bytes",
        "label": "string",
        "numberOfBytes": "32"
      },
      "t_struct(Proposal)1250_storage": {
        "encoding": "inplace",
        "label": "struct CHNGovernanceStorage.Proposal",
        "members": [
          {
            "astId": 1217,
            "contract": "contracts/CHNGovernance.sol:CHNGovernance",
            "label": "id",
            "offset": 0,
            "slot": "0",
            "type": "t_uint256"
          },
          {
            "astId": 1219,
            "contract": "contracts/CHNGovernance.sol:CHNGovernance",
            "label": "proposer",
            "offset": 0,
            "slot": "1",
            "type": "t_address"
          },
          {
            "astId": 1221,
            "contract": "contracts/CHNGovernance.sol:CHNGovernance",
            "label": "eta",
            "offset": 0,
            "slot": "2",
            "type": "t_uint256"
          },
          {
            "astId": 1224,
            "contract": "contracts/CHNGovernance.sol:CHNGovernance",
            "label": "targets",
            "offset": 0,
            "slot": "3",
            "type": "t_array(t_address)dyn_storage"
          },
          {
            "astId": 1227,
            "contract": "contracts/CHNGovernance.sol:CHNGovernance",
            "label": "values",
            "offset": 0,
            "slot": "4",
            "type": "t_array(t_uint256)dyn_storage"
          },
          {
            "astId": 1230,
            "contract": "contracts/CHNGovernance.sol:CHNGovernance",
            "label": "signatures",
            "offset": 0,
            "slot": "5",
            "type": "t_array(t_string_storage)dyn_storage"
          },
          {
            "astId": 1233,
            "contract": "contracts/CHNGovernance.sol:CHNGovernance",
            "label": "calldatas",
            "offset": 0,
            "slot": "6",
            "type": "t_array(t_bytes_storage)dyn_storage"
          },
          {
            "astId": 1235,
            "contract": "contracts/CHNGovernance.sol:CHNGovernance",
            "label": "startBlock",
            "offset": 0,
            "slot": "7",
            "type": "t_uint256"
          },
          {
            "astId": 1237,
            "contract": "contracts/CHNGovernance.sol:CHNGovernance",
            "label": "endBlock",
            "offset": 0,
            "slot": "8",
            "type": "t_uint256"
          },
          {
            "astId": 1239,
            "contract": "contracts/CHNGovernance.sol:CHNGovernance",
            "label": "forVotes",
            "offset": 0,
            "slot": "9",
            "type": "t_uint256"
          },
          {
            "astId": 1241,
            "contract": "contracts/CHNGovernance.sol:CHNGovernance",
            "label": "againstVotes",
            "offset": 0,
            "slot": "10",
            "type": "t_uint256"
          },
          {
            "astId": 1243,
            "contract": "contracts/CHNGovernance.sol:CHNGovernance",
            "label": "canceled",
            "offset": 0,
            "slot": "11",
            "type": "t_bool"
          },
          {
            "astId": 1245,
            "contract": "contracts/CHNGovernance.sol:CHNGovernance",
            "label": "executed",
            "offset": 1,
            "slot": "11",
            "type": "t_bool"
          },
          {
            "astId": 1249,
            "contract": "contracts/CHNGovernance.sol:CHNGovernance",
            "label": "receipts",
            "offset": 0,
            "slot": "12",
            "type": "t_mapping(t_address,t_struct(Receipt)1257_storage)"
          }
        ],
        "numberOfBytes": "416"
      },
      "t_struct(Receipt)1257_storage": {
        "encoding": "inplace",
        "label": "struct CHNGovernanceStorage.Receipt",
        "members": [
          {
            "astId": 1252,
            "contract": "contracts/CHNGovernance.sol:CHNGovernance",
            "label": "hasVoted",
            "offset": 0,
            "slot": "0",
            "type": "t_bool"
          },
          {
            "astId": 1254,
            "contract": "contracts/CHNGovernance.sol:CHNGovernance",
            "label": "support",
            "offset": 1,
            "slot": "0",
            "type": "t_bool"
          },
          {
            "astId": 1256,
            "contract": "contracts/CHNGovernance.sol:CHNGovernance",
            "label": "votes",
            "offset": 0,
            "slot": "1",
            "type": "t_uint256"
          }
        ],
        "numberOfBytes": "64"
      },
      "t_uint256": {
        "encoding": "inplace",
        "label": "uint256",
        "numberOfBytes": "32"
      }
    }
  }
}