{
  "address": "0xCbC2534ffa3012Fc7132e2CEB36a9Be1A3725BFB",
  "abi": [
    {
      "inputs": [
        {
          "internalType": "address",
          "name": "timelock_",
          "type": "address"
        },
        {
          "internalType": "address",
          "name": "chn_",
          "type": "address"
        },
        {
          "internalType": "address",
          "name": "guardian_",
          "type": "address"
        },
        {
          "internalType": "uint256[]",
          "name": "configs",
          "type": "uint256[]"
        }
      ],
      "payable": false,
      "stateMutability": "nonpayable",
      "type": "constructor"
    },
    {
      "anonymous": false,
      "inputs": [
        {
          "indexed": false,
          "internalType": "uint256",
          "name": "id",
          "type": "uint256"
        }
      ],
      "name": "ProposalCanceled",
      "type": "event"
    },
    {
      "anonymous": false,
      "inputs": [
        {
          "indexed": false,
          "internalType": "uint256",
          "name": "id",
          "type": "uint256"
        },
        {
          "indexed": false,
          "internalType": "address",
          "name": "proposer",
          "type": "address"
        },
        {
          "indexed": false,
          "internalType": "address[]",
          "name": "targets",
          "type": "address[]"
        },
        {
          "indexed": false,
          "internalType": "uint256[]",
          "name": "values",
          "type": "uint256[]"
        },
        {
          "indexed": false,
          "internalType": "string[]",
          "name": "signatures",
          "type": "string[]"
        },
        {
          "indexed": false,
          "internalType": "bytes[]",
          "name": "calldatas",
          "type": "bytes[]"
        },
        {
          "indexed": false,
          "internalType": "uint256",
          "name": "startBlock",
          "type": "uint256"
        },
        {
          "indexed": false,
          "internalType": "uint256",
          "name": "endBlock",
          "type": "uint256"
        },
        {
          "indexed": false,
          "internalType": "string",
          "name": "description",
          "type": "string"
        }
      ],
      "name": "ProposalCreated",
      "type": "event"
    },
    {
      "anonymous": false,
      "inputs": [
        {
          "indexed": false,
          "internalType": "uint256",
          "name": "id",
          "type": "uint256"
        }
      ],
      "name": "ProposalExecuted",
      "type": "event"
    },
    {
      "anonymous": false,
      "inputs": [
        {
          "indexed": false,
          "internalType": "uint256",
          "name": "id",
          "type": "uint256"
        },
        {
          "indexed": false,
          "internalType": "uint256",
          "name": "eta",
          "type": "uint256"
        }
      ],
      "name": "ProposalQueued",
      "type": "event"
    },
    {
      "anonymous": false,
      "inputs": [
        {
          "indexed": false,
          "internalType": "address",
          "name": "voter",
          "type": "address"
        },
        {
          "indexed": false,
          "internalType": "uint256",
          "name": "proposalId",
          "type": "uint256"
        },
        {
          "indexed": false,
          "internalType": "bool",
          "name": "support",
          "type": "bool"
        },
        {
          "indexed": false,
          "internalType": "uint256",
          "name": "votes",
          "type": "uint256"
        }
      ],
      "name": "VoteCast",
      "type": "event"
    },
    {
      "constant": true,
      "inputs": [],
      "name": "BALLOT_TYPEHASH",
      "outputs": [
        {
          "internalType": "bytes32",
          "name": "",
          "type": "bytes32"
        }
      ],
      "payable": false,
      "stateMutability": "view",
      "type": "function"
    },
    {
      "constant": true,
      "inputs": [],
      "name": "DOMAIN_TYPEHASH",
      "outputs": [
        {
          "internalType": "bytes32",
          "name": "",
          "type": "bytes32"
        }
      ],
      "payable": false,
      "stateMutability": "view",
      "type": "function"
    },
    {
      "constant": false,
      "inputs": [],
      "name": "__abdicate",
      "outputs": [],
      "payable": false,
      "stateMutability": "nonpayable",
      "type": "function"
    },
    {
      "constant": false,
      "inputs": [],
      "name": "__acceptAdmin",
      "outputs": [],
      "payable": false,
      "stateMutability": "nonpayable",
      "type": "function"
    },
    {
      "constant": false,
      "inputs": [
        {
          "internalType": "address",
          "name": "newPendingAdmin",
          "type": "address"
        },
        {
          "internalType": "uint256",
          "name": "eta",
          "type": "uint256"
        }
      ],
      "name": "__executeSetTimelockPendingAdmin",
      "outputs": [],
      "payable": false,
      "stateMutability": "nonpayable",
      "type": "function"
    },
    {
      "constant": false,
      "inputs": [
        {
          "internalType": "address",
          "name": "newPendingAdmin",
          "type": "address"
        },
        {
          "internalType": "uint256",
          "name": "eta",
          "type": "uint256"
        }
      ],
      "name": "__queueSetTimelockPendingAdmin",
      "outputs": [],
      "payable": false,
      "stateMutability": "nonpayable",
      "type": "function"
    },
    {
      "constant": false,
      "inputs": [
        {
          "internalType": "uint256",
          "name": "proposalId",
          "type": "uint256"
        }
      ],
      "name": "cancel",
      "outputs": [],
      "payable": false,
      "stateMutability": "nonpayable",
      "type": "function"
    },
    {
      "constant": false,
      "inputs": [
        {
          "internalType": "uint256",
          "name": "proposalId",
          "type": "uint256"
        },
        {
          "internalType": "bool",
          "name": "support",
          "type": "bool"
        }
      ],
      "name": "castVote",
      "outputs": [],
      "payable": false,
      "stateMutability": "nonpayable",
      "type": "function"
    },
    {
      "constant": false,
      "inputs": [
        {
          "internalType": "uint256",
          "name": "proposalId",
          "type": "uint256"
        },
        {
          "internalType": "bool",
          "name": "support",
          "type": "bool"
        },
        {
          "internalType": "uint8",
          "name": "v",
          "type": "uint8"
        },
        {
          "internalType": "bytes32",
          "name": "r",
          "type": "bytes32"
        },
        {
          "internalType": "bytes32",
          "name": "s",
          "type": "bytes32"
        }
      ],
      "name": "castVoteBySig",
      "outputs": [],
      "payable": false,
      "stateMutability": "nonpayable",
      "type": "function"
    },
    {
      "constant": false,
      "inputs": [
        {
          "internalType": "uint256",
          "name": "value",
          "type": "uint256"
        }
      ],
      "name": "changeProposalMaxOperations",
      "outputs": [],
      "payable": false,
      "stateMutability": "nonpayable",
      "type": "function"
    },
    {
      "constant": false,
      "inputs": [
        {
          "internalType": "uint256",
          "name": "value",
          "type": "uint256"
        }
      ],
      "name": "changeProposalThreshold",
      "outputs": [],
      "payable": false,
      "stateMutability": "nonpayable",
      "type": "function"
    },
    {
      "constant": false,
      "inputs": [
        {
          "internalType": "uint256",
          "name": "value",
          "type": "uint256"
        }
      ],
      "name": "changeQuorumVotes",
      "outputs": [],
      "payable": false,
      "stateMutability": "nonpayable",
      "type": "function"
    },
    {
      "constant": false,
      "inputs": [
        {
          "internalType": "uint256",
          "name": "value",
          "type": "uint256"
        }
      ],
      "name": "changeVotingDelay",
      "outputs": [],
      "payable": false,
      "stateMutability": "nonpayable",
      "type": "function"
    },
    {
      "constant": false,
      "inputs": [
        {
          "internalType": "uint256",
          "name": "value",
          "type": "uint256"
        }
      ],
      "name": "changeVotingPeriod",
      "outputs": [],
      "payable": false,
      "stateMutability": "nonpayable",
      "type": "function"
    },
    {
      "constant": true,
      "inputs": [],
      "name": "chnToken",
      "outputs": [
        {
          "internalType": "contract CHNToken",
          "name": "",
          "type": "address"
        }
      ],
      "payable": false,
      "stateMutability": "view",
      "type": "function"
    },
    {
      "constant": false,
      "inputs": [
        {
          "internalType": "uint256",
          "name": "proposalId",
          "type": "uint256"
        }
      ],
      "name": "execute",
      "outputs": [],
      "payable": true,
      "stateMutability": "payable",
      "type": "function"
    },
    {
      "constant": true,
      "inputs": [
        {
          "internalType": "uint256",
          "name": "proposalId",
          "type": "uint256"
        }
      ],
      "name": "getActions",
      "outputs": [
        {
          "internalType": "address[]",
          "name": "targets",
          "type": "address[]"
        },
        {
          "internalType": "uint256[]",
          "name": "values",
          "type": "uint256[]"
        },
        {
          "internalType": "string[]",
          "name": "signatures",
          "type": "string[]"
        },
        {
          "internalType": "bytes[]",
          "name": "calldatas",
          "type": "bytes[]"
        }
      ],
      "payable": false,
      "stateMutability": "view",
      "type": "function"
    },
    {
      "constant": true,
      "inputs": [
        {
          "internalType": "uint256",
          "name": "proposalId",
          "type": "uint256"
        },
        {
          "internalType": "address",
          "name": "voter",
          "type": "address"
        }
      ],
      "name": "getReceipt",
      "outputs": [
        {
          "components": [
            {
              "internalType": "bool",
              "name": "hasVoted",
              "type": "bool"
            },
            {
              "internalType": "bool",
              "name": "support",
              "type": "bool"
            },
            {
              "internalType": "uint256",
              "name": "votes",
              "type": "uint256"
            }
          ],
          "internalType": "struct CHNGovernanceStorage.Receipt",
          "name": "",
          "type": "tuple"
        }
      ],
      "payable": false,
      "stateMutability": "view",
      "type": "function"
    },
    {
      "constant": true,
      "inputs": [],
      "name": "guardian",
      "outputs": [
        {
          "internalType": "address",
          "name": "",
          "type": "address"
        }
      ],
      "payable": false,
      "stateMutability": "view",
      "type": "function"
    },
    {
      "constant": true,
      "inputs": [
        {
          "internalType": "address",
          "name": "",
          "type": "address"
        }
      ],
      "name": "latestProposalIds",
      "outputs": [
        {
          "internalType": "uint256",
          "name": "",
          "type": "uint256"
        }
      ],
      "payable": false,
      "stateMutability": "view",
      "type": "function"
    },
    {
      "constant": true,
      "inputs": [],
      "name": "name",
      "outputs": [
        {
          "internalType": "string",
          "name": "",
          "type": "string"
        }
      ],
      "payable": false,
      "stateMutability": "view",
      "type": "function"
    },
    {
      "constant": true,
      "inputs": [],
      "name": "proposalCount",
      "outputs": [
        {
          "internalType": "uint256",
          "name": "",
          "type": "uint256"
        }
      ],
      "payable": false,
      "stateMutability": "view",
      "type": "function"
    },
    {
      "constant": true,
      "inputs": [],
      "name": "proposalMaxOperations",
      "outputs": [
        {
          "internalType": "uint256",
          "name": "",
          "type": "uint256"
        }
      ],
      "payable": false,
      "stateMutability": "view",
      "type": "function"
    },
    {
      "constant": true,
      "inputs": [],
      "name": "proposalThreshold",
      "outputs": [
        {
          "internalType": "uint256",
          "name": "",
          "type": "uint256"
        }
      ],
      "payable": false,
      "stateMutability": "view",
      "type": "function"
    },
    {
      "constant": true,
      "inputs": [
        {
          "internalType": "uint256",
          "name": "",
          "type": "uint256"
        }
      ],
      "name": "proposals",
      "outputs": [
        {
          "internalType": "uint256",
          "name": "id",
          "type": "uint256"
        },
        {
          "internalType": "address",
          "name": "proposer",
          "type": "address"
        },
        {
          "internalType": "uint256",
          "name": "eta",
          "type": "uint256"
        },
        {
          "internalType": "uint256",
          "name": "startBlock",
          "type": "uint256"
        },
        {
          "internalType": "uint256",
          "name": "endBlock",
          "type": "uint256"
        },
        {
          "internalType": "uint256",
          "name": "forVotes",
          "type": "uint256"
        },
        {
          "internalType": "uint256",
          "name": "againstVotes",
          "type": "uint256"
        },
        {
          "internalType": "bool",
          "name": "canceled",
          "type": "bool"
        },
        {
          "internalType": "bool",
          "name": "executed",
          "type": "bool"
        }
      ],
      "payable": false,
      "stateMutability": "view",
      "type": "function"
    },
    {
      "constant": false,
      "inputs": [
        {
          "internalType": "address[]",
          "name": "targets",
          "type": "address[]"
        },
        {
          "internalType": "uint256[]",
          "name": "values",
          "type": "uint256[]"
        },
        {
          "internalType": "string[]",
          "name": "signatures",
          "type": "string[]"
        },
        {
          "internalType": "bytes[]",
          "name": "calldatas",
          "type": "bytes[]"
        },
        {
          "internalType": "string",
          "name": "description",
          "type": "string"
        }
      ],
      "name": "propose",
      "outputs": [
        {
          "internalType": "uint256",
          "name": "",
          "type": "uint256"
        }
      ],
      "payable": false,
      "stateMutability": "nonpayable",
      "type": "function"
    },
    {
      "constant": false,
      "inputs": [
        {
          "internalType": "uint256",
          "name": "proposalId",
          "type": "uint256"
        }
      ],
      "name": "queue",
      "outputs": [],
      "payable": false,
      "stateMutability": "nonpayable",
      "type": "function"
    },
    {
      "constant": true,
      "inputs": [],
      "name": "quorumVotes",
      "outputs": [
        {
          "internalType": "uint256",
          "name": "",
          "type": "uint256"
        }
      ],
      "payable": false,
      "stateMutability": "view",
      "type": "function"
    },
    {
      "constant": true,
      "inputs": [
        {
          "internalType": "uint256",
          "name": "proposalId",
          "type": "uint256"
        }
      ],
      "name": "state",
      "outputs": [
        {
          "internalType": "enum CHNGovernanceStorage.ProposalState",
          "name": "",
          "type": "uint8"
        }
      ],
      "payable": false,
      "stateMutability": "view",
      "type": "function"
    },
    {
      "constant": true,
      "inputs": [],
      "name": "timelock",
      "outputs": [
        {
          "internalType": "contract TimelockInterface",
          "name": "",
          "type": "address"
        }
      ],
      "payable": false,
      "stateMutability": "view",
      "type": "function"
    },
    {
      "constant": true,
      "inputs": [],
      "name": "votingDelay",
      "outputs": [
        {
          "internalType": "uint256",
          "name": "",
          "type": "uint256"
        }
      ],
      "payable": false,
      "stateMutability": "view",
      "type": "function"
    },
    {
      "constant": true,
      "inputs": [],
      "name": "votingPeriod",
      "outputs": [
        {
          "internalType": "uint256",
          "name": "",
          "type": "uint256"
        }
      ],
      "payable": false,
      "stateMutability": "view",
      "type": "function"
    }
  ],
  "transactionHash": "0x9b6a2060af35783cf7f576c6b4a1adc2e9853707e97e44e0355ccebb444d016e",
  "args": [
    "0x499411110D892E641094f11a018B13270Ea0898b",
    "0x47974400432ADbCCAC6BdedAE73DDAaaFA91A5ec",
    "0xF54b3294616d39749732Ac74F234F46C9ABf29C4",
    [
      "100000000000000000000",
      "100000000000000000000",
      50,
      1,
      1800
    ]
  ],
  "solcInputHash": "881b93b3acf5212e1275dd322f04e147",
  "bytecode": "0x60806040523480156200001157600080fd5b5060405162003e6338038062003e63833981016040819052620000349162000107565b600580546001600160a01b038087166001600160a01b031992831617909255600680548684169083161790556007805492851692909116919091179055805181906000906200007f57fe5b6020026020010151600081905550806001815181106200009b57fe5b602002602001015160018190555080600281518110620000b757fe5b602002602001015160028190555080600381518110620000d357fe5b602002602001015160038190555080600481518110620000ef57fe5b6020026020010151600481905550505050506200024a565b600080600080608085870312156200011d578384fd5b84516200012a8162000231565b809450506020808601516200013f8162000231565b6040870151909450620001528162000231565b60608701519093506001600160401b038111156200016e578283fd5b80870188601f82011262000180578384fd5b8051915062000199620001938362000211565b620001ea565b82815283810190828501858502840186018c1015620001b6578687fd5b8693505b84841015620001da578051835260019390930192918501918501620001ba565b50979a9699509497505050505050565b6040518181016001600160401b03811182821017156200020957600080fd5b604052919050565b60006001600160401b0382111562000227578081fd5b5060209081020190565b6001600160a01b03811681146200024757600080fd5b50565b613c09806200025a6000396000f3fe6080604052600436106101e35760003560e01c8063727bb39911610102578063da35c66411610095578063e23a9a5211610064578063e23a9a5214610532578063e4cfde541461055f578063f9dabc551461057f578063fe0d94c11461059f576101e3565b8063da35c664146104c8578063da95691a146104dd578063ddf0b009146104fd578063deaaa7cc1461051d576101e3565b8063a8f0a82e116100d1578063a8f0a82e14610469578063b58131b014610489578063b9a619611461049e578063d33219b4146104b3576101e3565b8063727bb3991461040a578063760fbc131461041f5780637bdbe4d0146104345780639150067114610449576101e3565b80632c4548cf1161017a57806340e58ee51161014957806340e58ee514610388578063452a9320146103a85780634634c61f146103ca5780635832cf59146103ea576101e3565b80632c4548cf146102f6578063328dd982146103165780633932abb1146103465780633e4f49e61461035b576101e3565b806317977c61116101b657806317977c611461028c57806320606b70146102ac57806321f43e42146102c157806324bc1a64146102e1576101e3565b8063013cf08b146101e857806302a251a31461022657806306fdde031461024857806315373e3d1461026a575b600080fd5b3480156101f457600080fd5b50610208610203366004612bb8565b6105b2565b60405161021d99989796959493929190613a9c565b60405180910390f35b34801561023257600080fd5b5061023b610619565b60405161021d9190613106565b34801561025457600080fd5b5061025d61061f565b60405161021d919061318a565b34801561027657600080fd5b5061028a610285366004612bfc565b610658565b005b34801561029857600080fd5b5061023b6102a73660046129fd565b610667565b3480156102b857600080fd5b5061023b610679565b3480156102cd57600080fd5b5061028a6102dc366004612a18565b610690565b3480156102ed57600080fd5b5061023b6107ca565b34801561030257600080fd5b5061028a610311366004612bb8565b6107d0565b34801561032257600080fd5b50610336610331366004612bb8565b610826565b60405161021d94939291906130af565b34801561035257600080fd5b5061023b610afe565b34801561036757600080fd5b5061037b610376366004612bb8565b610b04565b60405161021d9190613176565b34801561039457600080fd5b5061028a6103a3366004612bb8565b610cc1565b3480156103b457600080fd5b506103bd610fac565b60405161021d9190612f3e565b3480156103d657600080fd5b5061028a6103e5366004612c2b565b610fc8565b3480156103f657600080fd5b5061028a610405366004612bb8565b6111aa565b34801561041657600080fd5b506103bd611200565b34801561042b57600080fd5b5061028a61121c565b34801561044057600080fd5b5061023b611297565b34801561045557600080fd5b5061028a610464366004612a18565b61129d565b34801561047557600080fd5b5061028a610484366004612bb8565b6113a7565b34801561049557600080fd5b5061023b6113fd565b3480156104aa57600080fd5b5061028a611403565b3480156104bf57600080fd5b506103bd6114d8565b3480156104d457600080fd5b5061023b6114f4565b3480156104e957600080fd5b5061023b6104f8366004612a42565b6114fa565b34801561050957600080fd5b5061028a610518366004612bb8565b6119fd565b34801561052957600080fd5b5061023b611cf5565b34801561053e57600080fd5b5061055261054d366004612bd0565b611d01565b60405161021d91906139d6565b34801561056b57600080fd5b5061028a61057a366004612bb8565b611d72565b34801561058b57600080fd5b5061028a61059a366004612bb8565b611dc8565b61028a6105ad366004612bb8565b611e1e565b60096020819052600091825260409091208054600182015460028301546007840154600885015495850154600a860154600b90960154949673ffffffffffffffffffffffffffffffffffffffff909416959294919392909160ff8082169161010090041689565b60045481565b6040518060400160405280600e81526020017f436861696e20476f7665726e6f7200000000000000000000000000000000000081525081565b610663338383612052565b5050565b600a6020526000908152604090205481565b60405161068590612e7a565b604051809103902081565b60075473ffffffffffffffffffffffffffffffffffffffff1633146106ea576040517f08c379a00000000000000000000000000000000000000000000000000000000081526004016106e190613300565b60405180910390fd5b60055460405173ffffffffffffffffffffffffffffffffffffffff90911690630825f38f908290600090610722908790602001612f3e565b604051602081830303815290604052856040518563ffffffff1660e01b81526004016107519493929190612f5f565b600060405180830381600087803b15801561076b57600080fd5b505af115801561077f573d6000803e3d6000fd5b505050506040513d6000823e601f3d9081017fffffffffffffffffffffffffffffffffffffffffffffffffffffffffffffffe01682016040526107c59190810190612b42565b505050565b60005481565b60055473ffffffffffffffffffffffffffffffffffffffff163314610821576040517f08c379a00000000000000000000000000000000000000000000000000000000081526004016106e190613714565b600255565b606080606080600060096000878152602001908152602001600020905080600301816004018260050183600601838054806020026020016040519081016040528092919081815260200182805480156108b557602002820191906000526020600020905b815473ffffffffffffffffffffffffffffffffffffffff16815260019091019060200180831161088a575b505050505093508280548060200260200160405190810160405280929190818152602001828054801561090757602002820191906000526020600020905b8154815260200190600101908083116108f3575b5050505050925081805480602002602001604051908101604052809291908181526020016000905b828210156109f85760008481526020908190208301805460408051601f60027fffffffffffffffffffffffffffffffffffffffffffffffffffffffffffffffff6101006001871615020190941693909304928301859004850281018501909152818152928301828280156109e45780601f106109b9576101008083540402835291602001916109e4565b820191906000526020600020905b8154815290600101906020018083116109c757829003601f168201915b50505050508152602001906001019061092f565b50505050915080805480602002602001604051908101604052809291908181526020016000905b82821015610ae85760008481526020908190208301805460408051601f60027fffffffffffffffffffffffffffffffffffffffffffffffffffffffffffffffff610100600187161502019094169390930492830185900485028101850190915281815292830182828015610ad45780601f10610aa957610100808354040283529160200191610ad4565b820191906000526020600020905b815481529060010190602001808311610ab757829003601f168201915b505050505081526020019060010190610a1f565b5050505090509450945094509450509193509193565b60035481565b60008160085410158015610b185750600082115b610b4e576040517f08c379a00000000000000000000000000000000000000000000000000000000081526004016106e190613383565b6000828152600960205260409020600b81015460ff1615610b73576002915050610cbc565b80600701544311610b88576000915050610cbc565b80600801544311610b9d576001915050610cbc565b80600a01548160090154111580610bb957506000548160090154105b15610bc8576003915050610cbc565b6002810154610bdb576004915050610cbc565b600b810154610100900460ff1615610bf7576007915050610cbc565b6002810154600554604080517fc1a287e20000000000000000000000000000000000000000000000000000000081529051610ca6939273ffffffffffffffffffffffffffffffffffffffff169163c1a287e2916004808301926020929190829003018186803b158015610c6957600080fd5b505afa158015610c7d573d6000803e3d6000fd5b505050506040513d601f19601f82011682018060405250610ca19190810190612b2a565b61228b565b4210610cb6576006915050610cbc565b60059150505b919050565b6000610ccc82610b04565b90506007816007811115610cdc57fe5b1415610d14576040517f08c379a00000000000000000000000000000000000000000000000000000000081526004016106e1906138bf565b600082815260096020526040902060075473ffffffffffffffffffffffffffffffffffffffff16331480610df5575060018054600654918301546040517f70a08231000000000000000000000000000000000000000000000000000000008152919273ffffffffffffffffffffffffffffffffffffffff908116926370a0823192610da3921690600401612f3e565b60206040518083038186803b158015610dbb57600080fd5b505afa158015610dcf573d6000803e3d6000fd5b505050506040513d601f19601f82011682018060405250610df39190810190612b2a565b105b610e2b576040517f08c379a00000000000000000000000000000000000000000000000000000000081526004016106e1906135d7565b600b810180547fffffffffffffffffffffffffffffffffffffffffffffffffffffffffffffff0016600117905560005b6003820154811015610f6f5760055460038301805473ffffffffffffffffffffffffffffffffffffffff9092169163591fcdfe919084908110610e9a57fe5b60009182526020909120015460048501805473ffffffffffffffffffffffffffffffffffffffff9092169185908110610ecf57fe5b9060005260206000200154856005018581548110610ee957fe5b90600052602060002001866006018681548110610f0257fe5b9060005260206000200187600201546040518663ffffffff1660e01b8152600401610f31959493929190613068565b600060405180830381600087803b158015610f4b57600080fd5b505af1158015610f5f573d6000803e3d6000fd5b505060019092019150610e5b9050565b507f789cf55be980739dad1d0699b93b58e806b51c9d96619bfa8fe0a28abaa7b30c83604051610f9f9190613106565b60405180910390a1505050565b60075473ffffffffffffffffffffffffffffffffffffffff1681565b6000604051610fd690612e7a565b60408051918290038220828201909152600e82527f436861696e20476f7665726e6f720000000000000000000000000000000000006020909201919091527f8a978a11f76c43af6b43f115dd55c000b4382d9f05d80ca2971564bf6c703d7c61103d6122d1565b30604051602001611051949392919061310f565b604051602081830303815290604052805190602001209050600060405161107790612eef565b6040519081900381206110909189908990602001613140565b604051602081830303815290604052805190602001209050600082826040516020016110bd929190612e44565b6040516020818303038152906040528051906020012090506000600182888888604051600081526020016040526040516110fa9493929190613158565b6020604051602081039080840390855afa15801561111c573d6000803e3d6000fd5b50506040517fffffffffffffffffffffffffffffffffffffffffffffffffffffffffffffffe0015191505073ffffffffffffffffffffffffffffffffffffffff8116611194576040517f08c379a00000000000000000000000000000000000000000000000000000000081526004016106e190613862565b61119f818a8a612052565b505050505050505050565b60055473ffffffffffffffffffffffffffffffffffffffff1633146111fb576040517f08c379a00000000000000000000000000000000000000000000000000000000081526004016106e190613714565b600455565b60065473ffffffffffffffffffffffffffffffffffffffff1681565b60075473ffffffffffffffffffffffffffffffffffffffff16331461126d576040517f08c379a00000000000000000000000000000000000000000000000000000000081526004016106e190613979565b600780547fffffffffffffffffffffffff0000000000000000000000000000000000000000169055565b60025481565b60075473ffffffffffffffffffffffffffffffffffffffff1633146112ee576040517f08c379a00000000000000000000000000000000000000000000000000000000081526004016106e19061343d565b60055460405173ffffffffffffffffffffffffffffffffffffffff90911690633a66f901908290600090611326908790602001612f3e565b604051602081830303815290604052856040518563ffffffff1660e01b81526004016113559493929190612f5f565b602060405180830381600087803b15801561136f57600080fd5b505af1158015611383573d6000803e3d6000fd5b505050506040513d601f19601f820116820180604052506107c59190810190612b2a565b60055473ffffffffffffffffffffffffffffffffffffffff1633146113f8576040517f08c379a00000000000000000000000000000000000000000000000000000000081526004016106e190613714565b600055565b60015481565b60075473ffffffffffffffffffffffffffffffffffffffff163314611454576040517f08c379a00000000000000000000000000000000000000000000000000000000081526004016106e19061319d565b600560009054906101000a900473ffffffffffffffffffffffffffffffffffffffff1673ffffffffffffffffffffffffffffffffffffffff16630e18b6816040518163ffffffff1660e01b8152600401600060405180830381600087803b1580156114be57600080fd5b505af11580156114d2573d6000803e3d6000fd5b50505050565b60055473ffffffffffffffffffffffffffffffffffffffff1681565b60085481565b6001546006546040517f70a082310000000000000000000000000000000000000000000000000000000081526000929173ffffffffffffffffffffffffffffffffffffffff16906370a0823190611555903390600401612f3e565b60206040518083038186803b15801561156d57600080fd5b505afa158015611581573d6000803e3d6000fd5b505050506040513d601f19601f820116820180604052506115a59190810190612b2a565b10156115dd576040517f08c379a00000000000000000000000000000000000000000000000000000000081526004016106e190613805565b845186511480156115ef575083518651145b80156115fc575082518651145b611632576040517f08c379a00000000000000000000000000000000000000000000000000000000081526004016106e190613554565b855161166a576040517f08c379a00000000000000000000000000000000000000000000000000000000081526004016106e1906137a8565b600254865111156116a7576040517f08c379a00000000000000000000000000000000000000000000000000000000081526004016106e1906134c0565b336000908152600a602052604090205480156117585760006116c882610b04565b905060018160078111156116d857fe5b1415611710576040517f08c379a00000000000000000000000000000000000000000000000000000000081526004016106e190613634565b600081600781111561171e57fe5b1415611756576040517f08c379a00000000000000000000000000000000000000000000000000000000081526004016106e19061374b565b505b60006117664360035461228b565b905060006117768260045461228b565b6008805460010190559050611789612482565b604051806101a0016040528060085481526020013373ffffffffffffffffffffffffffffffffffffffff168152602001600081526020018b81526020018a815260200189815260200188815260200184815260200183815260200160008152602001600081526020016000151581526020016000151581525090508060096000836000015181526020019081526020016000206000820151816000015560208201518160010160006101000a81548173ffffffffffffffffffffffffffffffffffffffff021916908373ffffffffffffffffffffffffffffffffffffffff160217905550604082015181600201556060820151816003019080519060200190611893929190612504565b50608082015180516118af91600484019160209091019061258e565b5060a082015180516118cb9160058401916020909101906125d5565b5060c082015180516118e791600684019160209091019061262e565b5060e082015181600701556101008201518160080155610120820151816009015561014082015181600a015561016082015181600b0160006101000a81548160ff02191690831515021790555061018082015181600b0160016101000a81548160ff0219169083151502179055509050508060000151600a6000836020015173ffffffffffffffffffffffffffffffffffffffff1673ffffffffffffffffffffffffffffffffffffffff168152602001908152602001600020819055507f7d84a6263ae0d98d3329bd7b46bb4e8d6f98cd35a7adb45c274c8b7fd5ebd5e08160000151338c8c8c8c89898e6040516119e7999897969594939291906139fb565b60405180910390a1519998505050505050505050565b6004611a0882610b04565b6007811115611a1357fe5b14611a4a576040517f08c379a00000000000000000000000000000000000000000000000000000000081526004016106e1906131fa565b600081815260096020908152604080832060055482517f6a42b8f80000000000000000000000000000000000000000000000000000000081529251919493611aca93429373ffffffffffffffffffffffffffffffffffffffff90931692636a42b8f892600480840193919291829003018186803b158015610c6957600080fd5b905060005b6003830154811015611cbb57611cb3836003018281548110611aed57fe5b60009182526020909120015460048501805473ffffffffffffffffffffffffffffffffffffffff9092169184908110611b2257fe5b9060005260206000200154856005018481548110611b3c57fe5b600091825260209182902001805460408051601f60027fffffffffffffffffffffffffffffffffffffffffffffffffffffffffffffffff610100600187161502019094169390930492830185900485028101850190915281815292830182828015611be85780601f10611bbd57610100808354040283529160200191611be8565b820191906000526020600020905b815481529060010190602001808311611bcb57829003601f168201915b5050505050866006018581548110611bfc57fe5b600091825260209182902001805460408051601f60027fffffffffffffffffffffffffffffffffffffffffffffffffffffffffffffffff610100600187161502019094169390930492830185900485028101850190915281815292830182828015611ca85780601f10611c7d57610100808354040283529160200191611ca8565b820191906000526020600020905b815481529060010190602001808311611c8b57829003601f168201915b5050505050866122d6565b600101611acf565b50600282018190556040517f9a2e42fd6722813d69113e7d0079d3d940171428df7373df9c7f7617cfda289290610f9f9085908490613af5565b60405161068590612eef565b611d09612687565b50600082815260096020908152604080832073ffffffffffffffffffffffffffffffffffffffff85168452600c018252918290208251606081018452815460ff808216151583526101009091041615159281019290925260010154918101919091525b92915050565b60055473ffffffffffffffffffffffffffffffffffffffff163314611dc3576040517f08c379a00000000000000000000000000000000000000000000000000000000081526004016106e190613714565b600355565b60055473ffffffffffffffffffffffffffffffffffffffff163314611e19576040517f08c379a00000000000000000000000000000000000000000000000000000000081526004016106e190613714565b600155565b6005611e2982610b04565b6007811115611e3457fe5b14611e6b576040517f08c379a00000000000000000000000000000000000000000000000000000000081526004016106e19061327d565b6000818152600960205260408120600b810180547fffffffffffffffffffffffffffffffffffffffffffffffffffffffffffff00ff16610100179055905b60038201548110156120165760055460048301805473ffffffffffffffffffffffffffffffffffffffff90921691630825f38f919084908110611ee857fe5b9060005260206000200154846003018481548110611f0257fe5b60009182526020909120015460048601805473ffffffffffffffffffffffffffffffffffffffff9092169186908110611f3757fe5b9060005260206000200154866005018681548110611f5157fe5b90600052602060002001876006018781548110611f6a57fe5b9060005260206000200188600201546040518763ffffffff1660e01b8152600401611f99959493929190613068565b6000604051808303818588803b158015611fb257600080fd5b505af1158015611fc6573d6000803e3d6000fd5b50505050506040513d6000823e601f3d9081017fffffffffffffffffffffffffffffffffffffffffffffffffffffffffffffffe016820160405261200d9190810190612b42565b50600101611ea9565b507f712ae1383f79ac853f8d882153778e0260ef8f03b504e2866e0593e04d2b291f826040516120469190613106565b60405180910390a15050565b600161205d83610b04565b600781111561206857fe5b1461209f576040517f08c379a00000000000000000000000000000000000000000000000000000000081526004016106e19061391c565b600082815260096020908152604080832073ffffffffffffffffffffffffffffffffffffffff87168452600c8101909252909120805460ff161561210f576040517f08c379a00000000000000000000000000000000000000000000000000000000081526004016106e1906133e0565b6006546040517f70a0823100000000000000000000000000000000000000000000000000000000815260009173ffffffffffffffffffffffffffffffffffffffff16906370a0823190612166908990600401612f3e565b60206040518083038186803b15801561217e57600080fd5b505afa158015612192573d6000803e3d6000fd5b505050506040513d601f19601f820116820180604052506121b69190810190612b2a565b905083156121d6576121cc83600901548261228b565b60098401556121ea565b6121e483600a01548261228b565b600a8401555b815460017fffffffffffffffffffffffffffffffffffffffffffffffffffffffffffffff0090911681177fffffffffffffffffffffffffffffffffffffffffffffffffffffffffffff00ff166101008615150217835582018190556040517f877856338e13f63d0c36822ff0ef736b80934cd90574a3a5bc9262c39d217c469061227b908890889088908690612fd9565b60405180910390a1505050505050565b6000828201838110156122ca576040517f08c379a00000000000000000000000000000000000000000000000000000000081526004016106e19061351d565b9392505050565b465b90565b60055460405173ffffffffffffffffffffffffffffffffffffffff9091169063f2b0653790612311908890889088908890889060200161300e565b604051602081830303815290604052805190602001206040518263ffffffff1660e01b81526004016123439190613106565b60206040518083038186803b15801561235b57600080fd5b505afa15801561236f573d6000803e3d6000fd5b505050506040513d601f19601f820116820180604052506123939190810190612b0e565b156123ca576040517f08c379a00000000000000000000000000000000000000000000000000000000081526004016106e190613691565b6005546040517f3a66f90100000000000000000000000000000000000000000000000000000000815273ffffffffffffffffffffffffffffffffffffffff90911690633a66f90190612428908890889088908890889060040161300e565b602060405180830381600087803b15801561244257600080fd5b505af1158015612456573d6000803e3d6000fd5b505050506040513d601f19601f8201168201806040525061247a9190810190612b2a565b505050505050565b604051806101a0016040528060008152602001600073ffffffffffffffffffffffffffffffffffffffff1681526020016000815260200160608152602001606081526020016060815260200160608152602001600081526020016000815260200160008152602001600081526020016000151581526020016000151581525090565b82805482825590600052602060002090810192821561257e579160200282015b8281111561257e57825182547fffffffffffffffffffffffff00000000000000000000000000000000000000001673ffffffffffffffffffffffffffffffffffffffff909116178255602090920191600190910190612524565b5061258a9291506126a7565b5090565b8280548282559060005260206000209081019282156125c9579160200282015b828111156125c95782518255916020019190600101906125ae565b5061258a9291506126e3565b828054828255906000526020600020908101928215612622579160200282015b8281111561262257825180516126129184916020909101906126fd565b50916020019190600101906125f5565b5061258a92915061276a565b82805482825590600052602060002090810192821561267b579160200282015b8281111561267b578251805161266b9184916020909101906126fd565b509160200191906001019061264e565b5061258a92915061278d565b604080516060810182526000808252602082018190529181019190915290565b6122d391905b8082111561258a5780547fffffffffffffffffffffffff00000000000000000000000000000000000000001681556001016126ad565b6122d391905b8082111561258a57600081556001016126e9565b828054600181600116156101000203166002900490600052602060002090601f016020900481019282601f1061273e57805160ff19168380011785556125c9565b828001600101855582156125c957918201828111156125c95782518255916020019190600101906125ae565b6122d391905b8082111561258a57600061278482826127b0565b50600101612770565b6122d391905b8082111561258a5760006127a782826127b0565b50600101612793565b50805460018160011615610100020316600290046000825580601f106127d657506127f4565b601f0160209004906000526020600020908101906127f491906126e3565b50565b803573ffffffffffffffffffffffffffffffffffffffff81168114611d6c57600080fd5b600082601f83011261282b578081fd5b813561283e61283982613b2a565b613b03565b81815291506020808301908481018184028601820187101561285f57600080fd5b60005b848110156128865761287488836127f7565b84529282019290820190600101612862565b505050505092915050565b600082601f8301126128a1578081fd5b81356128af61283982613b2a565b8181529150602080830190840160005b838110156128ec576128d787602084358901016129af565b835260209283019291909101906001016128bf565b5050505092915050565b600082601f830112612906578081fd5b813561291461283982613b2a565b8181529150602080830190840160005b838110156128ec5761293c87602084358901016129af565b83526020928301929190910190600101612924565b600082601f830112612961578081fd5b813561296f61283982613b2a565b81815291506020808301908481018184028601820187101561299057600080fd5b60005b8481101561288657813584529282019290820190600101612993565b600082601f8301126129bf578081fd5b81356129cd61283982613b4a565b91508082528360208285010111156129e457600080fd5b8060208401602084013760009082016020015292915050565b600060208284031215612a0e578081fd5b6122ca83836127f7565b60008060408385031215612a2a578081fd5b612a3484846127f7565b946020939093013593505050565b600080600080600060a08688031215612a59578081fd5b853567ffffffffffffffff80821115612a70578283fd5b612a7c89838a0161281b565b96506020880135915080821115612a91578283fd5b612a9d89838a01612951565b95506040880135915080821115612ab2578283fd5b612abe89838a016128f6565b94506060880135915080821115612ad3578283fd5b612adf89838a01612891565b93506080880135915080821115612af4578283fd5b50612b01888289016129af565b9150509295509295909350565b600060208284031215612b1f578081fd5b81516122ca81613bb8565b600060208284031215612b3b578081fd5b5051919050565b600060208284031215612b53578081fd5b815167ffffffffffffffff811115612b69578182fd5b80830184601f820112612b7a578283fd5b80519150612b8a61283983613b4a565b828152856020848401011115612b9e578384fd5b612baf836020830160208501613b8c565b95945050505050565b600060208284031215612bc9578081fd5b5035919050565b60008060408385031215612be2578182fd5b82359150612bf384602085016127f7565b90509250929050565b60008060408385031215612c0e578182fd5b823591506020830135612c2081613bb8565b809150509250929050565b600080600080600060a08688031215612c42578283fd5b853594506020860135612c5481613bb8565b9350604086013560ff81168114612c69578384fd5b94979396509394606081013594506080013592915050565b6000815180845260208401935060208301825b82811015612cc857815173ffffffffffffffffffffffffffffffffffffffff16865260209586019590910190600101612c94565b5093949350505050565b600081518084526020840180819550602083028101915060208501845b84811015612d1d578284038852612d07848351612d5a565b6020988901989094509190910190600101612cef565b50919695505050505050565b6000815180845260208401935060208301825b82811015612cc8578151865260209586019590910190600101612d3c565b60008151808452612d72816020860160208601613b8c565b601f017fffffffffffffffffffffffffffffffffffffffffffffffffffffffffffffffe0169290920160200192915050565b600081546001811660008114612dc15760018114612dfd57612e3c565b607f600283041685527fffffffffffffffffffffffffffffffffffffffffffffffffffffffffffffff0082166020860152604085019250612e3c565b6002820480865284600052602060002060005b82811015612e325781546020828a010152600182019150602081019050612e10565b8701602001945050505b505092915050565b7f190100000000000000000000000000000000000000000000000000000000000081526002810192909252602282015260420190565b7f454950373132446f6d61696e28737472696e67206e616d652c75696e7432353681527f20636861696e49642c6164647265737320766572696679696e67436f6e74726160208201527f6374290000000000000000000000000000000000000000000000000000000000604082015260430190565b7f42616c6c6f742875696e743235362070726f706f73616c49642c626f6f6c207381527f7570706f72742900000000000000000000000000000000000000000000000000602082015260270190565b73ffffffffffffffffffffffffffffffffffffffff91909116815260200190565b600073ffffffffffffffffffffffffffffffffffffffff8616825284602083015260a06040830152601860a08301527f73657450656e64696e6741646d696e286164647265737329000000000000000060c083015260e06060830152612fc860e0830185612d5a565b905082608083015295945050505050565b73ffffffffffffffffffffffffffffffffffffffff949094168452602084019290925215156040830152606082015260800190565b600073ffffffffffffffffffffffffffffffffffffffff8716825285602083015260a0604083015261304360a0830186612d5a565b82810360608401526130558186612d5a565b9150508260808301529695505050505050565b600073ffffffffffffffffffffffffffffffffffffffff8716825285602083015260a0604083015261309d60a0830186612da4565b82810360608401526130558186612da4565b6000608082526130c26080830187612c81565b82810360208401526130d48187612d29565b83810360408501526130e68187612cd2565b91505082810360608401526130fb8185612cd2565b979650505050505050565b90815260200190565b9384526020840192909252604083015273ffffffffffffffffffffffffffffffffffffffff16606082015260800190565b92835260208301919091521515604082015260600190565b93845260ff9290921660208401526040830152606082015260800190565b602081016008831061318457fe5b91905290565b6000602082526122ca6020830184612d5a565b60208082526039908201527f476f7665726e6f72416c7068613a3a5f5f61636365707441646d696e3a20736560408201527f6e646572206d75737420626520676f7620677561726469616e00000000000000606082015260800190565b60208082526044908201527f476f7665726e6f72416c7068613a3a71756575653a2070726f706f73616c206360408201527f616e206f6e6c792062652071756575656420696620697420697320737563636560608201527f6564656400000000000000000000000000000000000000000000000000000000608082015260a00190565b60208082526045908201527f476f7665726e6f72416c7068613a3a657865637574653a2070726f706f73616c60408201527f2063616e206f6e6c79206265206578656375746564206966206974206973207160608201527f7565756564000000000000000000000000000000000000000000000000000000608082015260a00190565b6020808252604c908201527f476f7665726e6f72416c7068613a3a5f5f6578656375746553657454696d656c60408201527f6f636b50656e64696e6741646d696e3a2073656e646572206d7573742062652060608201527f676f7620677561726469616e0000000000000000000000000000000000000000608082015260a00190565b60208082526029908201527f476f7665726e6f72416c7068613a3a73746174653a20696e76616c696420707260408201527f6f706f73616c2069640000000000000000000000000000000000000000000000606082015260800190565b6020808252602d908201527f476f7665726e6f72416c7068613a3a5f63617374566f74653a20766f7465722060408201527f616c726561647920766f74656400000000000000000000000000000000000000606082015260800190565b6020808252604a908201527f476f7665726e6f72416c7068613a3a5f5f717565756553657454696d656c6f6360408201527f6b50656e64696e6741646d696e3a2073656e646572206d75737420626520676f60608201527f7620677561726469616e00000000000000000000000000000000000000000000608082015260a00190565b60208082526028908201527f476f7665726e6f72416c7068613a3a70726f706f73653a20746f6f206d616e7960408201527f20616374696f6e73000000000000000000000000000000000000000000000000606082015260800190565b60208082526011908201527f6164646974696f6e206f766572666c6f77000000000000000000000000000000604082015260600190565b60208082526044908201527f476f7665726e6f72416c7068613a3a70726f706f73653a2070726f706f73616c60408201527f2066756e6374696f6e20696e666f726d6174696f6e206172697479206d69736d60608201527f6174636800000000000000000000000000000000000000000000000000000000608082015260a00190565b6020808252602f908201527f476f7665726e6f72416c7068613a3a63616e63656c3a2070726f706f7365722060408201527f61626f7665207468726573686f6c640000000000000000000000000000000000606082015260800190565b60208082526038908201527f476f7665726e6f72416c7068613a3a70726f706f73653a20666f756e6420616e60408201527f20616c7265616479206163746976652070726f706f73616c0000000000000000606082015260800190565b60208082526044908201527f476f7665726e6f72416c7068613a3a5f71756575654f725265766572743a207060408201527f726f706f73616c20616374696f6e20616c72656164792071756575656420617460608201527f2065746100000000000000000000000000000000000000000000000000000000608082015260a00190565b6020808252601c908201527f476f7665726e6f72416c7068613a204f6e6c792054696d656c6f636b00000000604082015260600190565b60208082526039908201527f476f7665726e6f72416c7068613a3a70726f706f73653a20666f756e6420616e60408201527f20616c72656164792070656e64696e672070726f706f73616c00000000000000606082015260800190565b6020808252602c908201527f476f7665726e6f72416c7068613a3a70726f706f73653a206d7573742070726f60408201527f7669646520616374696f6e730000000000000000000000000000000000000000606082015260800190565b6020808252603f908201527f476f7665726e6f72416c7068613a3a70726f706f73653a2070726f706f73657260408201527f20766f7465732062656c6f772070726f706f73616c207468726573686f6c6400606082015260800190565b6020808252602f908201527f476f7665726e6f72416c7068613a3a63617374566f746542795369673a20696e60408201527f76616c6964207369676e61747572650000000000000000000000000000000000606082015260800190565b60208082526036908201527f476f7665726e6f72416c7068613a3a63616e63656c3a2063616e6e6f7420636160408201527f6e63656c2065786563757465642070726f706f73616c00000000000000000000606082015260800190565b6020808252602a908201527f476f7665726e6f72416c7068613a3a5f63617374566f74653a20766f74696e6760408201527f20697320636c6f73656400000000000000000000000000000000000000000000606082015260800190565b60208082526036908201527f476f7665726e6f72416c7068613a3a5f5f61626469636174653a2073656e646560408201527f72206d75737420626520676f7620677561726469616e00000000000000000000606082015260800190565b8151151581526020808301511515908201526040918201519181019190915260600190565b60006101208b835273ffffffffffffffffffffffffffffffffffffffff8b166020840152806040840152613a318184018b612c81565b8381036060850152613a43818b612d29565b9150508281036080840152613a588189612cd2565b83810360a0850152613a6a8189612cd2565b9150508560c08401528460e0840152828103610100840152613a8c8185612d5a565b9c9b505050505050505050505050565b98895273ffffffffffffffffffffffffffffffffffffffff97909716602089015260408801959095526060870193909352608086019190915260a085015260c0840152151560e083015215156101008201526101200190565b918252602082015260400190565b60405181810167ffffffffffffffff81118282101715613b2257600080fd5b604052919050565b600067ffffffffffffffff821115613b40578081fd5b5060209081020190565b600067ffffffffffffffff821115613b60578081fd5b50601f017fffffffffffffffffffffffffffffffffffffffffffffffffffffffffffffffe01660200190565b60005b83811015613ba7578181015183820152602001613b8f565b838111156114d25750506000910152565b80151581146127f457600080fdfea365627a7a723158203ab06da6c26b48dfa3741c47b0e78588e6ff9142fa5920928c4319928aeadcbf6c6578706572696d656e74616cf564736f6c63430005100040",
  "devdoc": {
    "methods": {}
  },
  "userdoc": {
    "methods": {}
  },
  "storageLayout": {
    "storage": [
      {
        "astId": 1199,
        "contract": "contracts/CHNGovernance.sol:CHNGovernance",
        "label": "quorumVotes",
        "offset": 0,
        "slot": "0",
        "type": "t_uint256"
      },
      {
        "astId": 1201,
        "contract": "contracts/CHNGovernance.sol:CHNGovernance",
        "label": "proposalThreshold",
        "offset": 0,
        "slot": "1",
        "type": "t_uint256"
      },
      {
        "astId": 1203,
        "contract": "contracts/CHNGovernance.sol:CHNGovernance",
        "label": "proposalMaxOperations",
        "offset": 0,
        "slot": "2",
        "type": "t_uint256"
      },
      {
        "astId": 1205,
        "contract": "contracts/CHNGovernance.sol:CHNGovernance",
        "label": "votingDelay",
        "offset": 0,
        "slot": "3",
        "type": "t_uint256"
      },
      {
        "astId": 1207,
        "contract": "contracts/CHNGovernance.sol:CHNGovernance",
        "label": "votingPeriod",
        "offset": 0,
        "slot": "4",
        "type": "t_uint256"
      },
      {
        "astId": 1209,
        "contract": "contracts/CHNGovernance.sol:CHNGovernance",
        "label": "timelock",
        "offset": 0,
        "slot": "5",
        "type": "t_contract(TimelockInterface)1186"
      },
      {
        "astId": 1211,
        "contract": "contracts/CHNGovernance.sol:CHNGovernance",
        "label": "chnToken",
        "offset": 0,
        "slot": "6",
        "type": "t_contract(CHNToken)1194"
      },
      {
        "astId": 1213,
        "contract": "contracts/CHNGovernance.sol:CHNGovernance",
        "label": "guardian",
        "offset": 0,
        "slot": "7",
        "type": "t_address"
      },
      {
        "astId": 1215,
        "contract": "contracts/CHNGovernance.sol:CHNGovernance",
        "label": "proposalCount",
        "offset": 0,
        "slot": "8",
        "type": "t_uint256"
      },
      {
        "astId": 1270,
        "contract": "contracts/CHNGovernance.sol:CHNGovernance",
        "label": "proposals",
        "offset": 0,
        "slot": "9",
        "type": "t_mapping(t_uint256,t_struct(Proposal)1250_storage)"
      },
      {
        "astId": 1274,
        "contract": "contracts/CHNGovernance.sol:CHNGovernance",
        "label": "latestProposalIds",
        "offset": 0,
        "slot": "10",
        "type": "t_mapping(t_address,t_uint256)"
      }
    ],
    "types": {
      "t_address": {
        "encoding": "inplace",
        "label": "address",
        "numberOfBytes": "20"
      },
      "t_array(t_address)dyn_storage": {
        "base": "t_address",
        "encoding": "dynamic_array",
        "label": "address[]",
        "numberOfBytes": "32"
      },
      "t_array(t_bytes_storage)dyn_storage": {
        "base": "t_bytes_storage",
        "encoding": "dynamic_array",
        "label": "bytes[]",
        "numberOfBytes": "32"
      },
      "t_array(t_string_storage)dyn_storage": {
        "base": "t_string_storage",
        "encoding": "dynamic_array",
        "label": "string[]",
        "numberOfBytes": "32"
      },
      "t_array(t_uint256)dyn_storage": {
        "base": "t_uint256",
        "encoding": "dynamic_array",
        "label": "uint256[]",
        "numberOfBytes": "32"
      },
      "t_bool": {
        "encoding": "inplace",
        "label": "bool",
        "numberOfBytes": "1"
      },
      "t_bytes_storage": {
        "encoding": "bytes",
        "label": "bytes",
        "numberOfBytes": "32"
      },
      "t_contract(CHNToken)1194": {
        "encoding": "inplace",
        "label": "contract CHNToken",
        "numberOfBytes": "20"
      },
      "t_contract(TimelockInterface)1186": {
        "encoding": "inplace",
        "label": "contract TimelockInterface",
        "numberOfBytes": "20"
      },
      "t_mapping(t_address,t_struct(Receipt)1257_storage)": {
        "encoding": "mapping",
        "key": "t_address",
        "label": "mapping(address => struct CHNGovernanceStorage.Receipt)",
        "numberOfBytes": "32",
        "value": "t_struct(Receipt)1257_storage"
      },
      "t_mapping(t_address,t_uint256)": {
        "encoding": "mapping",
        "key": "t_address",
        "label": "mapping(address => uint256)",
        "numberOfBytes": "32",
        "value": "t_uint256"
      },
      "t_mapping(t_uint256,t_struct(Proposal)1250_storage)": {
        "encoding": "mapping",
        "key": "t_uint256",
        "label": "mapping(uint256 => struct CHNGovernanceStorage.Proposal)",
        "numberOfBytes": "32",
        "value": "t_struct(Proposal)1250_storage"
      },
      "t_string_storage": {
        "encoding": "bytes",
        "label": "string",
        "numberOfBytes": "32"
      },
      "t_struct(Proposal)1250_storage": {
        "encoding": "inplace",
        "label": "struct CHNGovernanceStorage.Proposal",
        "members": [
          {
            "astId": 1217,
            "contract": "contracts/CHNGovernance.sol:CHNGovernance",
            "label": "id",
            "offset": 0,
            "slot": "0",
            "type": "t_uint256"
          },
          {
            "astId": 1219,
            "contract": "contracts/CHNGovernance.sol:CHNGovernance",
            "label": "proposer",
            "offset": 0,
            "slot": "1",
            "type": "t_address"
          },
          {
            "astId": 1221,
            "contract": "contracts/CHNGovernance.sol:CHNGovernance",
            "label": "eta",
            "offset": 0,
            "slot": "2",
            "type": "t_uint256"
          },
          {
            "astId": 1224,
            "contract": "contracts/CHNGovernance.sol:CHNGovernance",
            "label": "targets",
            "offset": 0,
            "slot": "3",
            "type": "t_array(t_address)dyn_storage"
          },
          {
            "astId": 1227,
            "contract": "contracts/CHNGovernance.sol:CHNGovernance",
            "label": "values",
            "offset": 0,
            "slot": "4",
            "type": "t_array(t_uint256)dyn_storage"
          },
          {
            "astId": 1230,
            "contract": "contracts/CHNGovernance.sol:CHNGovernance",
            "label": "signatures",
            "offset": 0,
            "slot": "5",
            "type": "t_array(t_string_storage)dyn_storage"
          },
          {
            "astId": 1233,
            "contract": "contracts/CHNGovernance.sol:CHNGovernance",
            "label": "calldatas",
            "offset": 0,
            "slot": "6",
            "type": "t_array(t_bytes_storage)dyn_storage"
          },
          {
            "astId": 1235,
            "contract": "contracts/CHNGovernance.sol:CHNGovernance",
            "label": "startBlock",
            "offset": 0,
            "slot": "7",
            "type": "t_uint256"
          },
          {
            "astId": 1237,
            "contract": "contracts/CHNGovernance.sol:CHNGovernance",
            "label": "endBlock",
            "offset": 0,
            "slot": "8",
            "type": "t_uint256"
          },
          {
            "astId": 1239,
            "contract": "contracts/CHNGovernance.sol:CHNGovernance",
            "label": "forVotes",
            "offset": 0,
            "slot": "9",
            "type": "t_uint256"
          },
          {
            "astId": 1241,
            "contract": "contracts/CHNGovernance.sol:CHNGovernance",
            "label": "againstVotes",
            "offset": 0,
            "slot": "10",
            "type": "t_uint256"
          },
          {
            "astId": 1243,
            "contract": "contracts/CHNGovernance.sol:CHNGovernance",
            "label": "canceled",
            "offset": 0,
            "slot": "11",
            "type": "t_bool"
          },
          {
            "astId": 1245,
            "contract": "contracts/CHNGovernance.sol:CHNGovernance",
            "label": "executed",
            "offset": 1,
            "slot": "11",
            "type": "t_bool"
          },
          {
            "astId": 1249,
            "contract": "contracts/CHNGovernance.sol:CHNGovernance",
            "label": "receipts",
            "offset": 0,
            "slot": "12",
            "type": "t_mapping(t_address,t_struct(Receipt)1257_storage)"
          }
        ],
        "numberOfBytes": "416"
      },
      "t_struct(Receipt)1257_storage": {
        "encoding": "inplace",
        "label": "struct CHNGovernanceStorage.Receipt",
        "members": [
          {
            "astId": 1252,
            "contract": "contracts/CHNGovernance.sol:CHNGovernance",
            "label": "hasVoted",
            "offset": 0,
            "slot": "0",
            "type": "t_bool"
          },
          {
            "astId": 1254,
            "contract": "contracts/CHNGovernance.sol:CHNGovernance",
            "label": "support",
            "offset": 1,
            "slot": "0",
            "type": "t_bool"
          },
          {
            "astId": 1256,
            "contract": "contracts/CHNGovernance.sol:CHNGovernance",
            "label": "votes",
            "offset": 0,
            "slot": "1",
            "type": "t_uint256"
          }
        ],
        "numberOfBytes": "64"
      },
      "t_uint256": {
        "encoding": "inplace",
        "label": "uint256",
        "numberOfBytes": "32"
      }
    }
  }
}