{
  "address": "0x98B72445f078FEa8400D6E0ba11C60D66f1c1942",
  "abi": [
    {
      "inputs": [
        {
          "internalType": "uint256",
          "name": "initialSupply",
          "type": "uint256"
        }
      ],
      "stateMutability": "nonpayable",
      "type": "constructor"
    },
    {
      "anonymous": false,
      "inputs": [
        {
          "indexed": true,
          "internalType": "address",
          "name": "owner",
          "type": "address"
        },
        {
          "indexed": true,
          "internalType": "address",
          "name": "spender",
          "type": "address"
        },
        {
          "indexed": false,
          "internalType": "uint256",
          "name": "value",
          "type": "uint256"
        }
      ],
      "name": "Approval",
      "type": "event"
    },
    {
      "anonymous": false,
      "inputs": [
        {
          "indexed": true,
          "internalType": "address",
          "name": "from",
          "type": "address"
        },
        {
          "indexed": true,
          "internalType": "address",
          "name": "to",
          "type": "address"
        },
        {
          "indexed": false,
          "internalType": "uint256",
          "name": "value",
          "type": "uint256"
        }
      ],
      "name": "Transfer",
      "type": "event"
    },
    {
      "inputs": [
        {
          "internalType": "address",
          "name": "owner",
          "type": "address"
        },
        {
          "internalType": "address",
          "name": "spender",
          "type": "address"
        }
      ],
      "name": "allowance",
      "outputs": [
        {
          "internalType": "uint256",
          "name": "",
          "type": "uint256"
        }
      ],
      "stateMutability": "view",
      "type": "function"
    },
    {
      "inputs": [
        {
          "internalType": "address",
          "name": "spender",
          "type": "address"
        },
        {
          "internalType": "uint256",
          "name": "amount",
          "type": "uint256"
        }
      ],
      "name": "approve",
      "outputs": [
        {
          "internalType": "bool",
          "name": "",
          "type": "bool"
        }
      ],
      "stateMutability": "nonpayable",
      "type": "function"
    },
    {
      "inputs": [
        {
          "internalType": "address",
          "name": "account",
          "type": "address"
        }
      ],
      "name": "balanceOf",
      "outputs": [
        {
          "internalType": "uint256",
          "name": "",
          "type": "uint256"
        }
      ],
      "stateMutability": "view",
      "type": "function"
    },
    {
      "inputs": [],
      "name": "decimals",
      "outputs": [
        {
          "internalType": "uint8",
          "name": "",
          "type": "uint8"
        }
      ],
      "stateMutability": "view",
      "type": "function"
    },
    {
      "inputs": [
        {
          "internalType": "address",
          "name": "spender",
          "type": "address"
        },
        {
          "internalType": "uint256",
          "name": "subtractedValue",
          "type": "uint256"
        }
      ],
      "name": "decreaseAllowance",
      "outputs": [
        {
          "internalType": "bool",
          "name": "",
          "type": "bool"
        }
      ],
      "stateMutability": "nonpayable",
      "type": "function"
    },
    {
      "inputs": [
        {
          "internalType": "address",
          "name": "spender",
          "type": "address"
        },
        {
          "internalType": "uint256",
          "name": "addedValue",
          "type": "uint256"
        }
      ],
      "name": "increaseAllowance",
      "outputs": [
        {
          "internalType": "bool",
          "name": "",
          "type": "bool"
        }
      ],
      "stateMutability": "nonpayable",
      "type": "function"
    },
    {
      "inputs": [
        {
          "internalType": "uint256",
          "name": "amount",
          "type": "uint256"
        }
      ],
      "name": "mintForUser",
      "outputs": [],
      "stateMutability": "nonpayable",
      "type": "function"
    },
    {
      "inputs": [],
      "name": "name",
      "outputs": [
        {
          "internalType": "string",
          "name": "",
          "type": "string"
        }
      ],
      "stateMutability": "view",
      "type": "function"
    },
    {
      "inputs": [],
      "name": "symbol",
      "outputs": [
        {
          "internalType": "string",
          "name": "",
          "type": "string"
        }
      ],
      "stateMutability": "view",
      "type": "function"
    },
    {
      "inputs": [],
      "name": "totalSupply",
      "outputs": [
        {
          "internalType": "uint256",
          "name": "",
          "type": "uint256"
        }
      ],
      "stateMutability": "view",
      "type": "function"
    },
    {
      "inputs": [
        {
          "internalType": "address",
          "name": "recipient",
          "type": "address"
        },
        {
          "internalType": "uint256",
          "name": "amount",
          "type": "uint256"
        }
      ],
      "name": "transfer",
      "outputs": [
        {
          "internalType": "bool",
          "name": "",
          "type": "bool"
        }
      ],
      "stateMutability": "nonpayable",
      "type": "function"
    },
    {
      "inputs": [
        {
          "internalType": "address",
          "name": "sender",
          "type": "address"
        },
        {
          "internalType": "address",
          "name": "recipient",
          "type": "address"
        },
        {
          "internalType": "uint256",
          "name": "amount",
          "type": "uint256"
        }
      ],
      "name": "transferFrom",
      "outputs": [
        {
          "internalType": "bool",
          "name": "",
          "type": "bool"
        }
      ],
      "stateMutability": "nonpayable",
      "type": "function"
    }
  ],
  "transactionHash": "0x7fa0a3d221f54586734d1d53061b1230ff8789d45a3d1e85b6b68a6dc8c4e354",
  "args": [
    "10000000000000000000000000"
  ],
  "solcInputHash": "c23f160073bcd9bff6478f736112861e",
  "bytecode": "0x60806040523480156200001157600080fd5b50604051620010f0380380620010f0833981016040819052620000349162000232565b6040805180820182526004808252635553444360e01b60208084018281528551808701909652928552840152815191929162000073916003916200018c565b508051620000899060049060208401906200018c565b5050506200009e3382620000a560201b60201c565b50620002ed565b6001600160a01b038216620000d75760405162461bcd60e51b8152600401620000ce906200024b565b60405180910390fd5b620000e56000838362000187565b8060026000828254620000f991906200028b565b90915550506001600160a01b03821660009081526020819052604081208054839290620001289084906200028b565b90915550506040516001600160a01b038316906000907fddf252ad1be2c89b69c2b068fc378daa952ba7f163c4a11628f55a4df523b3ef906200016d90859062000282565b60405180910390a3620001836000838362000187565b5050565b505050565b8280546200019a90620002b0565b90600052602060002090601f016020900481019282620001be576000855562000209565b82601f10620001d957805160ff191683800117855562000209565b8280016001018555821562000209579182015b8281111562000209578251825591602001919060010190620001ec565b50620002179291506200021b565b5090565b5b808211156200021757600081556001016200021c565b60006020828403121562000244578081fd5b5051919050565b6020808252601f908201527f45524332303a206d696e7420746f20746865207a65726f206164647265737300604082015260600190565b90815260200190565b60008219821115620002ab57634e487b7160e01b81526011600452602481fd5b500190565b600281046001821680620002c557607f821691505b60208210811415620002e757634e487b7160e01b600052602260045260246000fd5b50919050565b610df380620002fd6000396000f3fe608060405234801561001057600080fd5b50600436106100d45760003560e01c806363784c8711610081578063a457c2d71161005b578063a457c2d714610197578063a9059cbb146101aa578063dd62ed3e146101bd576100d4565b806363784c871461016757806370a082311461017c57806395d89b411461018f576100d4565b806323b872dd116100b257806323b872dd1461012c578063313ce5671461013f5780633950935114610154576100d4565b806306fdde03146100d9578063095ea7b3146100f757806318160ddd14610117575b600080fd5b6100e16101d0565b6040516100ee91906109e2565b60405180910390f35b61010a610105366004610996565b610262565b6040516100ee91906109d7565b61011f61027f565b6040516100ee9190610d15565b61010a61013a36600461095b565b610285565b61014761035f565b6040516100ee9190610d1e565b61010a610162366004610996565b610364565b61017a6101753660046109bf565b6103c5565b005b61011f61018a366004610908565b6103d2565b6100e16103fe565b61010a6101a5366004610996565b61040d565b61010a6101b8366004610996565b6104ad565b61011f6101cb366004610929565b6104c1565b6060600380546101df90610d69565b80601f016020809104026020016040519081016040528092919081815260200182805461020b90610d69565b80156102585780601f1061022d57610100808354040283529160200191610258565b820191906000526020600020905b81548152906001019060200180831161023b57829003601f168201915b5050505050905090565b600061027661026f6104f9565b84846104fd565b50600192915050565b60025490565b600061029284848461060c565b73ffffffffffffffffffffffffffffffffffffffff84166000908152600160205260408120816102c06104f9565b73ffffffffffffffffffffffffffffffffffffffff1673ffffffffffffffffffffffffffffffffffffffff16815260200190815260200160002054905082811015610340576040517f08c379a000000000000000000000000000000000000000000000000000000000815260040161033790610b6a565b60405180910390fd5b6103548561034c6104f9565b8584036104fd565b506001949350505050565b601290565b60006102766103716104f9565b84846001600061037f6104f9565b73ffffffffffffffffffffffffffffffffffffffff908116825260208083019390935260409182016000908120918b16815292529020546103c09190610d2c565b6104fd565b6103cf33826107d2565b50565b73ffffffffffffffffffffffffffffffffffffffff81166000908152602081905260409020545b919050565b6060600480546101df90610d69565b6000806001600061041c6104f9565b73ffffffffffffffffffffffffffffffffffffffff9081168252602080830193909352604091820160009081209188168152925290205490508281101561048f576040517f08c379a000000000000000000000000000000000000000000000000000000000815260040161033790610c81565b6104a361049a6104f9565b858584036104fd565b5060019392505050565b60006102766104ba6104f9565b848461060c565b73ffffffffffffffffffffffffffffffffffffffff918216600090815260016020908152604080832093909416825291909152205490565b3390565b73ffffffffffffffffffffffffffffffffffffffff831661054a576040517f08c379a000000000000000000000000000000000000000000000000000000000815260040161033790610c24565b73ffffffffffffffffffffffffffffffffffffffff8216610597576040517f08c379a000000000000000000000000000000000000000000000000000000000815260040161033790610ab0565b73ffffffffffffffffffffffffffffffffffffffff80841660008181526001602090815260408083209487168084529490915290819020849055517f8c5be1e5ebec7d5bd14f71427d1e84f3dd0314c0f7b2291e5b200ac8c7c3b925906105ff908590610d15565b60405180910390a3505050565b73ffffffffffffffffffffffffffffffffffffffff8316610659576040517f08c379a000000000000000000000000000000000000000000000000000000000815260040161033790610bc7565b73ffffffffffffffffffffffffffffffffffffffff82166106a6576040517f08c379a000000000000000000000000000000000000000000000000000000000815260040161033790610a53565b6106b18383836108df565b73ffffffffffffffffffffffffffffffffffffffff831660009081526020819052604090205481811015610711576040517f08c379a000000000000000000000000000000000000000000000000000000000815260040161033790610b0d565b73ffffffffffffffffffffffffffffffffffffffff808516600090815260208190526040808220858503905591851681529081208054849290610755908490610d2c565b925050819055508273ffffffffffffffffffffffffffffffffffffffff168473ffffffffffffffffffffffffffffffffffffffff167fddf252ad1be2c89b69c2b068fc378daa952ba7f163c4a11628f55a4df523b3ef846040516107b99190610d15565b60405180910390a36107cc8484846108df565b50505050565b73ffffffffffffffffffffffffffffffffffffffff821661081f576040517f08c379a000000000000000000000000000000000000000000000000000000000815260040161033790610cde565b61082b600083836108df565b806002600082825461083d9190610d2c565b909155505073ffffffffffffffffffffffffffffffffffffffff821660009081526020819052604081208054839290610877908490610d2c565b909155505060405173ffffffffffffffffffffffffffffffffffffffff8316906000907fddf252ad1be2c89b69c2b068fc378daa952ba7f163c4a11628f55a4df523b3ef906108c7908590610d15565b60405180910390a36108db600083836108df565b5050565b505050565b803573ffffffffffffffffffffffffffffffffffffffff811681146103f957600080fd5b600060208284031215610919578081fd5b610922826108e4565b9392505050565b6000806040838503121561093b578081fd5b610944836108e4565b9150610952602084016108e4565b90509250929050565b60008060006060848603121561096f578081fd5b610978846108e4565b9250610986602085016108e4565b9150604084013590509250925092565b600080604083850312156109a8578182fd5b6109b1836108e4565b946020939093013593505050565b6000602082840312156109d0578081fd5b5035919050565b901515815260200190565b6000602080835283518082850152825b81811015610a0e578581018301518582016040015282016109f2565b81811115610a1f5783604083870101525b50601f017fffffffffffffffffffffffffffffffffffffffffffffffffffffffffffffffe016929092016040019392505050565b60208082526023908201527f45524332303a207472616e7366657220746f20746865207a65726f206164647260408201527f6573730000000000000000000000000000000000000000000000000000000000606082015260800190565b60208082526022908201527f45524332303a20617070726f766520746f20746865207a65726f20616464726560408201527f7373000000000000000000000000000000000000000000000000000000000000606082015260800190565b60208082526026908201527f45524332303a207472616e7366657220616d6f756e742065786365656473206260408201527f616c616e63650000000000000000000000000000000000000000000000000000606082015260800190565b60208082526028908201527f45524332303a207472616e7366657220616d6f756e742065786365656473206160408201527f6c6c6f77616e6365000000000000000000000000000000000000000000000000606082015260800190565b60208082526025908201527f45524332303a207472616e736665722066726f6d20746865207a65726f20616460408201527f6472657373000000000000000000000000000000000000000000000000000000606082015260800190565b60208082526024908201527f45524332303a20617070726f76652066726f6d20746865207a65726f2061646460408201527f7265737300000000000000000000000000000000000000000000000000000000606082015260800190565b60208082526025908201527f45524332303a2064656372656173656420616c6c6f77616e63652062656c6f7760408201527f207a65726f000000000000000000000000000000000000000000000000000000606082015260800190565b6020808252601f908201527f45524332303a206d696e7420746f20746865207a65726f206164647265737300604082015260600190565b90815260200190565b60ff91909116815260200190565b60008219821115610d64577f4e487b710000000000000000000000000000000000000000000000000000000081526011600452602481fd5b500190565b600281046001821680610d7d57607f821691505b60208210811415610db7577f4e487b7100000000000000000000000000000000000000000000000000000000600052602260045260246000fd5b5091905056fea2646970667358221220cd3e439c72c922f9f3b3a93d1cf24ac86aa39c26ec1d526c4d983874efe9ddbe64736f6c63430008000033",
  "devdoc": {
    "kind": "dev",
    "methods": {
      "allowance(address,address)": {
        "details": "See {IERC20-allowance}."
      },
      "approve(address,uint256)": {
        "details": "See {IERC20-approve}. Requirements: - `spender` cannot be the zero address."
      },
      "balanceOf(address)": {
        "details": "See {IERC20-balanceOf}."
      },
      "decimals()": {
        "details": "Returns the number of decimals used to get its user representation. For example, if `decimals` equals `2`, a balance of `505` tokens should be displayed to a user as `5.05` (`505 / 10 ** 2`). Tokens usually opt for a value of 18, imitating the relationship between Ether and Wei. This is the value {ERC20} uses, unless this function is overridden; NOTE: This information is only used for _display_ purposes: it in no way affects any of the arithmetic of the contract, including {IERC20-balanceOf} and {IERC20-transfer}."
      },
      "decreaseAllowance(address,uint256)": {
        "details": "Atomically decreases the allowance granted to `spender` by the caller. This is an alternative to {approve} that can be used as a mitigation for problems described in {IERC20-approve}. Emits an {Approval} event indicating the updated allowance. Requirements: - `spender` cannot be the zero address. - `spender` must have allowance for the caller of at least `subtractedValue`."
      },
      "increaseAllowance(address,uint256)": {
        "details": "Atomically increases the allowance granted to `spender` by the caller. This is an alternative to {approve} that can be used as a mitigation for problems described in {IERC20-approve}. Emits an {Approval} event indicating the updated allowance. Requirements: - `spender` cannot be the zero address."
      },
      "name()": {
        "details": "Returns the name of the token."
      },
      "symbol()": {
        "details": "Returns the symbol of the token, usually a shorter version of the name."
      },
      "totalSupply()": {
        "details": "See {IERC20-totalSupply}."
      },
      "transfer(address,uint256)": {
        "details": "See {IERC20-transfer}. Requirements: - `recipient` cannot be the zero address. - the caller must have a balance of at least `amount`."
      },
      "transferFrom(address,address,uint256)": {
        "details": "See {IERC20-transferFrom}. Emits an {Approval} event indicating the updated allowance. This is not required by the EIP. See the note at the beginning of {ERC20}. Requirements: - `sender` and `recipient` cannot be the zero address. - `sender` must have a balance of at least `amount`. - the caller must have allowance for ``sender``'s tokens of at least `amount`."
      }
    },
    "version": 1
  },
  "userdoc": {
    "kind": "user",
    "methods": {},
    "version": 1
  },
  "storageLayout": {
    "storage": [
      {
        "astId": 15,
        "contract": "contracts/FakeToken.sol:FakeToken",
        "label": "_balances",
        "offset": 0,
        "slot": "0",
        "type": "t_mapping(t_address,t_uint256)"
      },
      {
        "astId": 21,
        "contract": "contracts/FakeToken.sol:FakeToken",
        "label": "_allowances",
        "offset": 0,
        "slot": "1",
        "type": "t_mapping(t_address,t_mapping(t_address,t_uint256))"
      },
      {
        "astId": 23,
        "contract": "contracts/FakeToken.sol:FakeToken",
        "label": "_totalSupply",
        "offset": 0,
        "slot": "2",
        "type": "t_uint256"
      },
      {
        "astId": 25,
        "contract": "contracts/FakeToken.sol:FakeToken",
        "label": "_name",
        "offset": 0,
        "slot": "3",
        "type": "t_string_storage"
      },
      {
        "astId": 27,
        "contract": "contracts/FakeToken.sol:FakeToken",
        "label": "_symbol",
        "offset": 0,
        "slot": "4",
        "type": "t_string_storage"
      }
    ],
    "types": {
      "t_address": {
        "encoding": "inplace",
        "label": "address",
        "numberOfBytes": "20"
      },
      "t_mapping(t_address,t_mapping(t_address,t_uint256))": {
        "encoding": "mapping",
        "key": "t_address",
        "label": "mapping(address => mapping(address => uint256))",
        "numberOfBytes": "32",
        "value": "t_mapping(t_address,t_uint256)"
      },
      "t_mapping(t_address,t_uint256)": {
        "encoding": "mapping",
        "key": "t_address",
        "label": "mapping(address => uint256)",
        "numberOfBytes": "32",
        "value": "t_uint256"
      },
      "t_string_storage": {
        "encoding": "bytes",
        "label": "string",
        "numberOfBytes": "32"
      },
      "t_uint256": {
        "encoding": "inplace",
        "label": "uint256",
        "numberOfBytes": "32"
      }
    }
  }
}